{
  "abi": [
    {
      "inputs": [
        {
          "internalType": "string",
          "name": "_name",
          "type": "string"
        },
        {
          "internalType": "string",
          "name": "_symbol",
          "type": "string"
        },
        {
          "internalType": "uint8",
          "name": "_decimals",
          "type": "uint8"
        },
        {
          "internalType": "uint256",
          "name": "_maxSupply",
          "type": "uint256"
        }
      ],
      "stateMutability": "nonpayable",
      "type": "constructor"
    },
    {
      "anonymous": false,
      "inputs": [
        {
          "indexed": false,
          "internalType": "address",
          "name": "controller",
          "type": "address"
        }
      ],
      "name": "ControllerAdded",
      "type": "event"
    },
    {
      "anonymous": false,
      "inputs": [
        {
          "indexed": false,
          "internalType": "address",
          "name": "controller",
          "type": "address"
        }
      ],
      "name": "ControllerRemoved",
      "type": "event"
    },
    {
      "anonymous": false,
      "inputs": [
        {
          "indexed": false,
          "internalType": "bytes",
          "name": "data",
          "type": "bytes"
        }
      ],
      "name": "DataDelivery",
      "type": "event"
    },
    {
      "anonymous": false,
      "inputs": [
        {
          "indexed": true,
          "internalType": "address",
          "name": "previousOwner",
          "type": "address"
        },
        {
          "indexed": true,
          "internalType": "address",
          "name": "newOwner",
          "type": "address"
        }
      ],
      "name": "OwnershipTransferred",
      "type": "event"
    },
    {
      "anonymous": false,
      "inputs": [
        {
          "indexed": true,
          "internalType": "address",
          "name": "sliceAddr",
          "type": "address"
        },
        {
          "indexed": false,
          "internalType": "uint256",
          "name": "start",
          "type": "uint256"
        },
        {
          "indexed": false,
          "internalType": "uint256",
          "name": "end",
          "type": "uint256"
        }
      ],
      "name": "SliceCreated",
      "type": "event"
    },
    {
      "inputs": [],
      "name": "MAX_TIME",
      "outputs": [
        {
          "internalType": "uint256",
          "name": "",
          "type": "uint256"
        }
      ],
      "stateMutability": "view",
      "type": "function"
    },
    {
      "inputs": [],
      "name": "MIN_TIME",
      "outputs": [
        {
          "internalType": "uint256",
          "name": "",
          "type": "uint256"
        }
      ],
      "stateMutability": "view",
      "type": "function"
    },
    {
      "inputs": [
        {
          "internalType": "address",
          "name": "_controller",
          "type": "address"
        }
      ],
      "name": "addController",
      "outputs": [],
      "stateMutability": "nonpayable",
      "type": "function"
    },
    {
      "inputs": [],
      "name": "allowSliceTransfer",
      "outputs": [
        {
          "internalType": "bool",
          "name": "",
          "type": "bool"
        }
      ],
      "stateMutability": "view",
      "type": "function"
    },
    {
      "inputs": [
        {
          "internalType": "address",
          "name": "owner",
          "type": "address"
        },
        {
          "internalType": "address",
          "name": "spender",
          "type": "address"
        }
      ],
      "name": "allowance",
      "outputs": [
        {
          "internalType": "uint256",
          "name": "",
          "type": "uint256"
        }
      ],
      "stateMutability": "view",
      "type": "function"
    },
    {
      "inputs": [
        {
          "internalType": "address",
          "name": "spender",
          "type": "address"
        },
        {
          "internalType": "uint256",
          "name": "amount",
          "type": "uint256"
        }
      ],
      "name": "approve",
      "outputs": [
        {
          "internalType": "bool",
          "name": "",
          "type": "bool"
        }
      ],
      "stateMutability": "nonpayable",
      "type": "function"
    },
    {
      "inputs": [
        {
          "internalType": "address",
          "name": "account",
          "type": "address"
        }
      ],
      "name": "balanceOf",
      "outputs": [
        {
          "internalType": "uint256",
          "name": "",
          "type": "uint256"
        }
      ],
      "stateMutability": "view",
      "type": "function"
    },
    {
      "inputs": [
        {
          "internalType": "address",
          "name": "",
          "type": "address"
        }
      ],
      "name": "blocked",
      "outputs": [
        {
          "internalType": "bool",
          "name": "",
          "type": "bool"
        }
      ],
      "stateMutability": "view",
      "type": "function"
    },
    {
      "inputs": [
        {
          "internalType": "uint256",
          "name": "start",
          "type": "uint256"
        },
        {
          "internalType": "uint256",
          "name": "end",
          "type": "uint256"
        }
      ],
      "name": "createSlice",
      "outputs": [
        {
          "internalType": "address",
          "name": "sliceAddr",
          "type": "address"
        }
      ],
      "stateMutability": "nonpayable",
      "type": "function"
    },
    {
      "inputs": [],
      "name": "decimals",
      "outputs": [
        {
          "internalType": "uint8",
          "name": "",
          "type": "uint8"
        }
      ],
      "stateMutability": "view",
      "type": "function"
    },
    {
      "inputs": [],
      "name": "fullTimeToken",
      "outputs": [
        {
          "internalType": "address",
          "name": "",
          "type": "address"
        }
      ],
      "stateMutability": "view",
      "type": "function"
    },
    {
      "inputs": [
        {
          "internalType": "uint256",
          "name": "start",
          "type": "uint256"
        },
        {
          "internalType": "uint256",
          "name": "end",
          "type": "uint256"
        }
      ],
      "name": "getSlice",
      "outputs": [
        {
          "internalType": "address",
          "name": "",
          "type": "address"
        }
      ],
      "stateMutability": "view",
      "type": "function"
    },
    {
      "inputs": [
        {
          "internalType": "address",
          "name": "_controller",
          "type": "address"
        }
      ],
      "name": "isController",
      "outputs": [
        {
          "internalType": "bool",
          "name": "",
          "type": "bool"
        }
      ],
      "stateMutability": "view",
      "type": "function"
    },
    {
      "inputs": [],
      "name": "maxSupply",
      "outputs": [
        {
          "internalType": "uint256",
          "name": "",
          "type": "uint256"
        }
      ],
      "stateMutability": "view",
      "type": "function"
    },
    {
      "inputs": [
        {
          "internalType": "uint256",
          "name": "amount",
          "type": "uint256"
        },
        {
          "internalType": "address[]",
          "name": "slices",
          "type": "address[]"
        }
      ],
      "name": "mergeSlices",
      "outputs": [],
      "stateMutability": "nonpayable",
      "type": "function"
    },
    {
      "inputs": [],
      "name": "name",
      "outputs": [
        {
          "internalType": "string",
          "name": "",
          "type": "string"
        }
      ],
      "stateMutability": "view",
      "type": "function"
    },
    {
      "inputs": [],
      "name": "owner",
      "outputs": [
        {
          "internalType": "address",
          "name": "",
          "type": "address"
        }
      ],
      "stateMutability": "view",
      "type": "function"
    },
    {
      "inputs": [],
      "name": "paused",
      "outputs": [
        {
          "internalType": "bool",
          "name": "",
          "type": "bool"
        }
      ],
      "stateMutability": "view",
      "type": "function"
    },
    {
      "inputs": [
        {
          "internalType": "address",
          "name": "_controller",
          "type": "address"
        }
      ],
      "name": "removeController",
      "outputs": [],
      "stateMutability": "nonpayable",
      "type": "function"
    },
    {
      "inputs": [
        {
          "internalType": "uint256",
          "name": "amount",
          "type": "uint256"
        },
        {
          "internalType": "uint256",
          "name": "sliceTime",
          "type": "uint256"
        }
      ],
      "name": "sliceByTime",
      "outputs": [],
      "stateMutability": "nonpayable",
      "type": "function"
    },
    {
      "inputs": [],
      "name": "symbol",
      "outputs": [
        {
          "internalType": "string",
          "name": "",
          "type": "string"
        }
      ],
      "stateMutability": "view",
      "type": "function"
    },
    {
      "inputs": [
        {
          "internalType": "address",
          "name": "account",
          "type": "address"
        },
        {
          "internalType": "uint256",
          "name": "start",
          "type": "uint256"
        },
        {
          "internalType": "uint256",
          "name": "end",
          "type": "uint256"
        }
      ],
      "name": "timeBalanceOf",
      "outputs": [
        {
          "internalType": "uint256",
          "name": "",
          "type": "uint256"
        }
      ],
      "stateMutability": "view",
      "type": "function"
    },
    {
      "inputs": [
        {
          "internalType": "address",
          "name": "recipient",
          "type": "address"
        },
        {
          "internalType": "uint256",
          "name": "amount",
          "type": "uint256"
        },
        {
          "internalType": "uint256",
          "name": "start",
          "type": "uint256"
        },
        {
          "internalType": "uint256",
          "name": "end",
          "type": "uint256"
        }
      ],
      "name": "timeSliceTransfer",
      "outputs": [
        {
          "internalType": "bool",
          "name": "",
          "type": "bool"
        }
      ],
      "stateMutability": "nonpayable",
      "type": "function"
    },
    {
      "inputs": [
        {
          "internalType": "address",
          "name": "sender",
          "type": "address"
        },
        {
          "internalType": "address",
          "name": "recipient",
          "type": "address"
        },
        {
          "internalType": "uint256",
          "name": "amount",
          "type": "uint256"
        },
        {
          "internalType": "uint256",
          "name": "start",
          "type": "uint256"
        },
        {
          "internalType": "uint256",
          "name": "end",
          "type": "uint256"
        }
      ],
      "name": "timeSliceTransferFrom",
      "outputs": [
        {
          "internalType": "bool",
          "name": "",
          "type": "bool"
        }
      ],
      "stateMutability": "nonpayable",
      "type": "function"
    },
    {
      "inputs": [],
      "name": "totalSupply",
      "outputs": [
        {
          "internalType": "uint256",
          "name": "",
          "type": "uint256"
        }
      ],
      "stateMutability": "view",
      "type": "function"
    },
    {
      "inputs": [
        {
          "internalType": "address",
          "name": "recipient",
          "type": "address"
        },
        {
          "internalType": "uint256",
          "name": "amount",
          "type": "uint256"
        }
      ],
      "name": "transfer",
      "outputs": [
        {
          "internalType": "bool",
          "name": "",
          "type": "bool"
        }
      ],
      "stateMutability": "nonpayable",
      "type": "function"
    },
    {
      "inputs": [
        {
          "internalType": "address",
          "name": "recipient",
          "type": "address"
        },
        {
          "internalType": "uint256",
          "name": "amount",
          "type": "uint256"
        },
        {
          "internalType": "bytes",
          "name": "data",
          "type": "bytes"
        }
      ],
      "name": "transferData",
      "outputs": [
        {
          "internalType": "bool",
          "name": "",
          "type": "bool"
        }
      ],
      "stateMutability": "nonpayable",
      "type": "function"
    },
    {
      "inputs": [
        {
          "internalType": "address",
          "name": "sender",
          "type": "address"
        },
        {
          "internalType": "address",
          "name": "recipient",
          "type": "address"
        },
        {
          "internalType": "uint256",
          "name": "amount",
          "type": "uint256"
        }
      ],
      "name": "transferFrom",
      "outputs": [
        {
          "internalType": "bool",
          "name": "",
          "type": "bool"
        }
      ],
      "stateMutability": "nonpayable",
      "type": "function"
    },
    {
      "inputs": [
        {
          "internalType": "address",
          "name": "sender",
          "type": "address"
        },
        {
          "internalType": "address",
          "name": "recipient",
          "type": "address"
        },
        {
          "internalType": "uint256",
          "name": "amount",
          "type": "uint256"
        },
        {
          "internalType": "bytes",
          "name": "data",
          "type": "bytes"
        }
      ],
      "name": "transferFromData",
      "outputs": [
        {
          "internalType": "bool",
          "name": "",
          "type": "bool"
        }
      ],
      "stateMutability": "nonpayable",
      "type": "function"
    },
    {
      "inputs": [
        {
          "internalType": "address",
          "name": "newOwner",
          "type": "address"
        }
      ],
      "name": "transferOwnership",
      "outputs": [],
      "stateMutability": "nonpayable",
      "type": "function"
    }
  ],
  "bytecode": {
    "object": "0x60806040523480156200001157600080fd5b506040516200536b3803806200536b83398101604081905262000034916200058d565b838383836200004333620000c6565b835162000058906002906020870190620003ff565b5082516200006e906003906020860190620003ff565b506004805460ff191660ff841617905560068190556200009760006001600160401b0362000116565b600780546001600160a01b0319166001600160a01b039290921691909117905550620007849650505050505050565b600080546001600160a01b038381166001600160a01b0319831681178455604051919092169283917f8be0079c531659141344cd1fd0a4f28419497f9722a3daafe3b4186f6b6457e09190a35050565b6000828211620001865760405162461bcd60e51b815260206004820152603060248201527f4652433735393a20746f6b656e456e64206d757374206265206772656174657260448201526f081d1a185b881d1bdad95b94dd185c9d60821b60648201526084015b60405180910390fd5b6001600160401b03821115620001f35760405162461bcd60e51b815260206004820152602b60248201527f4652433735393a20746f6b656e456e64206d757374206265206c65737320746860448201526a616e204d41585f54494d4560a81b60648201526084016200017d565b60008381526009602090815260408083208584529091529020546001600160a01b031615620002655760405162461bcd60e51b815260206004820152601c60248201527f4652433735393a20736c69636520616c7265616479206578697374730000000060448201526064016200017d565b60006040518060200162000279906200048e565b601f1982820381018352601f909101166040818152602082018790528101859052909150600090606001604051602081830303815290604052805190602001209050808251602084016000f59250823b620002d357600080fd5b826001600160a01b0316631f7fd4306002604051602001620002f6919062000654565b604051602081830303815290604052600360405160200162000319919062000654565b60408051601f1981840301815290829052600480546001600160e01b031960e087901b16845262000356949360ff909116918c918c91016200073a565b600060405180830381600087803b1580156200037157600080fd5b505af115801562000386573d6000803e3d6000fd5b505050600086815260096020908152604080832088845282529182902080546001600160a01b0319166001600160a01b038816908117909155825189815291820188905292507f7a125dd6ae425051553afec88e88ac82cd38bd3c7ef1688fa968694ed9490290910160405180910390a2505092915050565b8280546200040d9062000618565b90600052602060002090601f0160209004810192826200043157600085556200047c565b82601f106200044c57805160ff19168380011785556200047c565b828001600101855582156200047c579182015b828111156200047c5782518255916020019190600101906200045f565b506200048a9291506200049c565b5090565b6115528062003e1983390190565b5b808211156200048a57600081556001016200049d565b634e487b7160e01b600052604160045260246000fd5b60005b83811015620004e6578181015183820152602001620004cc565b83811115620004f6576000848401525b50505050565b600082601f8301126200050e57600080fd5b81516001600160401b03808211156200052b576200052b620004b3565b604051601f8301601f19908116603f01168101908282118183101715620005565762000556620004b3565b816040528381528660208588010111156200057057600080fd5b62000583846020830160208901620004c9565b9695505050505050565b60008060008060808587031215620005a457600080fd5b84516001600160401b0380821115620005bc57600080fd5b620005ca88838901620004fc565b95506020870151915080821115620005e157600080fd5b50620005f087828801620004fc565b935050604085015160ff811681146200060857600080fd5b6060959095015193969295505050565b600181811c908216806200062d57607f821691505b6020821081036200064e57634e487b7160e01b600052602260045260246000fd5b50919050565b6254465f60e81b8152600060036000845481600182811c9150808316806200067d57607f831692505b602080841082036200069d57634e487b7160e01b86526022600452602486fd5b818015620006b45760018114620006ca57620006fd565b60ff1986168a890152848a0188019650620006fd565b60008b81526020902060005b86811015620006f35781548c82018b0152908501908301620006d6565b505087858b010196505b50949998505050505050505050565b6000815180845262000726816020860160208601620004c9565b601f01601f19169290920160200192915050565b60a0815260006200074f60a08301886200070c565b82810360208401526200076381886200070c565b60ff9690961660408401525050606081019290925260809091015292915050565b61368580620007946000396000f3fe608060405234801561001057600080fd5b50600436106101da5760003560e01c80638da5cb5b11610104578063b429afeb116100a2578063dd62ed3e11610071578063dd62ed3e146103ea578063e5962195146103fd578063f2fde38b14610420578063f6a74ed71461043357600080fd5b8063b429afeb146103a8578063b886d81a146103bb578063c0e37b15146103ce578063d5abeb01146103e157600080fd5b8063a0905e43116100de578063a0905e431461035a578063a4c45c061461036f578063a7fc7a0714610382578063a9059cbb1461039557600080fd5b80638da5cb5b146103395780638ff07b5b1461034a57806395d89b411461035257600080fd5b80632b53be311161017c5780634b04b3cf1161014b5780634b04b3cf146102ec5780635c975abb146102ff5780635d239d3e1461031357806370a082311461032657600080fd5b80632b53be311461027c5780632cdc68c4146102a7578063313ce567146102ba5780633363b01d146102d957600080fd5b806318160ddd116101b857806318160ddd1461022f57806323b872dd1461024657806325929a5e14610259578063269499841461026d57600080fd5b806302e95d04146101df57806306fdde0314610207578063095ea7b31461021c575b600080fd5b6101f26101ed366004611b40565b610446565b60405190151581526020015b60405180910390f35b61020f61063d565b6040516101fe9190611bfc565b6101f261022a366004611c0f565b6106cb565b61023860055481565b6040519081526020016101fe565b6101f2610254366004611c39565b61074a565b6007546101f290600160a81b900460ff1681565b61023867ffffffffffffffff81565b60075461028f906001600160a01b031681565b6040516001600160a01b0390911681526020016101fe565b6101f26102b5366004611c75565b610894565b6004546102c79060ff1681565b60405160ff90911681526020016101fe565b6102386102e7366004611cc2565b610a25565b61028f6102fa366004611cf5565b610ad8565b6007546101f290600160a01b900460ff1681565b61028f610321366004611cf5565b610dad565b610238610334366004611d17565b610dd3565b6000546001600160a01b031661028f565b610238600081565b61020f610e48565b61036d610368366004611d32565b610e55565b005b6101f261037d366004611db1565b61130a565b61036d610390366004611d17565b6113cd565b6101f26103a3366004611c0f565b611453565b6101f26103b6366004611d17565b6114d8565b61036d6103c9366004611cf5565b61150f565b6101f26103dc366004611dea565b611800565b61023860065481565b6102386103f8366004611e44565b6118c0565b6101f261040b366004611d17565b60086020526000908152604090205460ff1681565b61036d61042e366004611d17565b611937565b61036d610441366004611d17565b6119d2565b600754604051600162098b5360e21b031981526000916001600160a01b03169063ffd9d2b49061047e90899089908990600401611e77565b6020604051808303816000875af115801561049d573d6000803e3d6000fd5b505050506040513d601f19601f820116820180604052508101906104c19190611e9b565b506007546001600160a01b031663e03e7d96873360408051808201909152601a8152794652433735393a20746f6f206c65737320616c6c6f77616e636560301b6020820152600754610596918a916001600160a01b031663dd62ed3e8e335b6040516001600160e01b031960e085901b1681526001600160a01b03928316600482015291166024820152604401602060405180830381865afa15801561056b573d6000803e3d6000fd5b505050506040513d601f19601f8201168201806040525081019061058f9190611ebd565b9190611a4d565b6040518463ffffffff1660e01b81526004016105b493929190611e77565b6020604051808303816000875af11580156105d3573d6000803e3d6000fd5b505050506040513d601f19601f820116820180604052508101906105f79190611e9b565b507f5d9077e26c239c17c043cbb6da74001b6c7442aad9c1d795a4efaf1d17b5c4618383604051610629929190611ed6565b60405180910390a150600195945050505050565b6002805461064a90611f05565b80601f016020809104026020016040519081016040528092919081815260200182805461067690611f05565b80156106c35780601f10610698576101008083540402835291602001916106c3565b820191906000526020600020905b8154815290600101906020018083116106a657829003601f168201915b505050505081565b60075460405163701f3ecb60e11b81526000916001600160a01b03169063e03e7d969061070090339087908790600401611e77565b6020604051808303816000875af115801561071f573d6000803e3d6000fd5b505050506040513d601f19601f820116820180604052508101906107439190611e9b565b9392505050565b600754604051600162098b5360e21b031981526000916001600160a01b03169063ffd9d2b49061078290879087908790600401611e77565b6020604051808303816000875af11580156107a1573d6000803e3d6000fd5b505050506040513d601f19601f820116820180604052508101906107c59190611e9b565b506007546001600160a01b031663e03e7d96853360408051808201909152601a8152794652433735393a20746f6f206c65737320616c6c6f77616e636560301b60208201526007546108289188916001600160a01b031663dd62ed3e8c33610520565b6040518463ffffffff1660e01b815260040161084693929190611e77565b6020604051808303816000875af1158015610865573d6000803e3d6000fd5b505050506040513d601f19601f820116820180604052508101906108899190611e9b565b506001949350505050565b60008281526009602090815260408083208484529091528120546001600160a01b0316806108dd5760405162461bcd60e51b81526004016108d490611f3f565b60405180910390fd5b604051600162098b5360e21b031981526001600160a01b0382169063ffd9d2b490610910908a908a908a90600401611e77565b6020604051808303816000875af115801561092f573d6000803e3d6000fd5b505050506040513d601f19601f820116820180604052508101906109539190611e9b565b506007546001600160a01b031663e03e7d96883360408051808201909152601a8152794652433735393a20746f6f206c65737320616c6c6f77616e636560301b60208201526007546109b6918b916001600160a01b031663dd62ed3e8f33610520565b6040518463ffffffff1660e01b81526004016109d493929190611e77565b6020604051808303816000875af11580156109f3573d6000803e3d6000fd5b505050506040513d601f19601f82011682018060405250810190610a179190611e9b565b506001979650505050505050565b60008281526009602090815260408083208484529091528120546001600160a01b031680610a655760405162461bcd60e51b81526004016108d490611f3f565b6040516370a0823160e01b81526001600160a01b0386811660048301528216906370a0823190602401602060405180830381865afa158015610aab573d6000803e3d6000fd5b505050506040513d601f19601f82011682018060405250810190610acf9190611ebd565b95945050505050565b6000828211610b425760405162461bcd60e51b815260206004820152603060248201527f4652433735393a20746f6b656e456e64206d757374206265206772656174657260448201526f081d1a185b881d1bdad95b94dd185c9d60821b60648201526084016108d4565b67ffffffffffffffff821115610bae5760405162461bcd60e51b815260206004820152602b60248201527f4652433735393a20746f6b656e456e64206d757374206265206c65737320746860448201526a616e204d41585f54494d4560a81b60648201526084016108d4565b60008381526009602090815260408083208584529091529020546001600160a01b031615610c1e5760405162461bcd60e51b815260206004820152601c60248201527f4652433735393a20736c69636520616c7265616479206578697374730000000060448201526064016108d4565b600060405180602001610c3090611ace565b601f1982820381018352601f909101166040818152602082018790528101859052909150600090606001604051602081830303815290604052805190602001209050808251602084016000f59250823b610c8957600080fd5b826001600160a01b0316631f7fd4306002604051602001610caa9190611f76565b6040516020818303038152906040526003604051602001610ccb9190611f76565b60408051601f1981840301815290829052600480546001600160e01b031960e087901b168452610d06949360ff909116918c918c9101612026565b600060405180830381600087803b158015610d2057600080fd5b505af1158015610d34573d6000803e3d6000fd5b505050600086815260096020908152604080832088845282529182902080546001600160a01b0319166001600160a01b038816908117909155825189815291820188905292507f7a125dd6ae425051553afec88e88ac82cd38bd3c7ef1688fa968694ed9490290910160405180910390a2505092915050565b60009182526009602090815260408084209284529190529020546001600160a01b031690565b6007546040516370a0823160e01b81526001600160a01b03838116600483015260009216906370a0823190602401602060405180830381865afa158015610e1e573d6000803e3d6000fd5b505050506040513d601f19601f82011682018060405250810190610e429190611ebd565b92915050565b6003805461064a90611f05565b80610ea25760405162461bcd60e51b815260206004820152601a60248201527f4652433735393a20656d70747920736c6963657320617272617900000000000060448201526064016108d4565b60008311610ef25760405162461bcd60e51b815260206004820152601d60248201527f4652433735393a20616d6f756e742063616e6e6f74206265207a65726f00000060448201526064016108d4565b6000805b828110156111b7576000848483818110610f1257610f1261206c565b9050602002016020810190610f279190611d17565b6001600160a01b03166378e979256040518163ffffffff1660e01b8152600401602060405180830381865afa158015610f64573d6000803e3d6000fd5b505050506040513d601f19601f82011682018060405250810190610f889190611ebd565b90506000858584818110610f9e57610f9e61206c565b9050602002016020810190610fb39190611d17565b6001600160a01b0316633197cbb66040518163ffffffff1660e01b8152600401602060405180830381865afa158015610ff0573d6000803e3d6000fd5b505050506040513d601f19601f820116820180604052508101906110149190611ebd565b90506110208282610dad565b6001600160a01b031686868581811061103b5761103b61206c565b90506020020160208101906110509190611d17565b6001600160a01b0316146110a65760405162461bcd60e51b815260206004820152601d60248201527f4652433735393a20696e76616c696420736c696365206164647265737300000060448201526064016108d4565b8315806110b257508382145b6111095760405162461bcd60e51b815260206004820152602260248201527f4652433735393a20636f6e74696e756f757320736c6963657320726571756972604482015261195960f21b60648201526084016108d4565b85858481811061111b5761111b61206c565b90506020020160208101906111309190611d17565b6001600160a01b0316639dc29fac336040516001600160e01b031960e084901b1681526001600160a01b039091166004820152602481018a9052604401600060405180830381600087803b15801561118757600080fd5b505af115801561119b573d6000803e3d6000fd5b50505050809350505080806111af90612098565b915050610ef6565b506000838360008181106111cd576111cd61206c565b90506020020160208101906111e29190611d17565b6001600160a01b03166378e979256040518163ffffffff1660e01b8152600401602060405180830381865afa15801561121f573d6000803e3d6000fd5b505050506040513d601f19601f820116820180604052508101906112439190611ebd565b9050600042821161125357600091505b42831115611282576112658284610dad565b90506001600160a01b0381166112825761127f8284610ad8565b90505b6001600160a01b03811615611302576001600160a01b0381166340c10f19336040516001600160e01b031960e084901b1681526001600160a01b03909116600482015260248101899052604401600060405180830381600087803b1580156112e957600080fd5b505af11580156112fd573d6000803e3d6000fd5b505050505b505050505050565b60008281526009602090815260408083208484529091528120546001600160a01b03168061134a5760405162461bcd60e51b81526004016108d490611f3f565b604051600162098b5360e21b031981526001600160a01b0382169063ffd9d2b49061137d9033908a908a90600401611e77565b6020604051808303816000875af115801561139c573d6000803e3d6000fd5b505050506040513d601f19601f820116820180604052508101906113c09190611e9b565b5060019695505050505050565b6000546001600160a01b031633146113f75760405162461bcd60e51b81526004016108d4906120b1565b6001600160a01b038116600081815260016020818152604092839020805460ff191690921790915590519182527f0a8bb31534c0ed46f380cb867bd5c803a189ced9a764e30b3a4991a9901d747491015b60405180910390a150565b600754604051600162098b5360e21b031981526000916001600160a01b03169063ffd9d2b49061148b90339087908790600401611e77565b6020604051808303816000875af11580156114aa573d6000803e3d6000fd5b505050506040513d601f19601f820116820180604052508101906114ce9190611e9b565b5060019392505050565b600080546001600160a01b0383811691161480610e425750506001600160a01b031660009081526001602052604090205460ff1690565b428110156115785760405162461bcd60e51b815260206004820152603060248201527f4652433735393a20736c69636554696d65206d7573742062652067726561746560448201526f72207468616e20626c6f636b54696d6560801b60648201526084016108d4565b67ffffffffffffffff81106115e85760405162461bcd60e51b815260206004820152603060248201527f4652433735393a20736c69636554696d65206d75737420626520736d616c6c6560448201526f72207468616e20626c6f636b54696d6560801b60648201526084016108d4565b600082116116385760405162461bcd60e51b815260206004820152601d60248201527f4652433735393a20616d6f756e742063616e6e6f74206265207a65726f00000060448201526064016108d4565b6000611645600083610dad565b9050600061165b8367ffffffffffffffff610dad565b90506001600160a01b03821661167957611676600084610ad8565b91505b6001600160a01b03811661169c576116998367ffffffffffffffff610ad8565b90505b6007546001600160a01b0316639dc29fac336040516001600160e01b031960e084901b1681526001600160a01b03909116600482015260248101879052604401600060405180830381600087803b1580156116f657600080fd5b505af115801561170a573d6000803e3d6000fd5b50505050816001600160a01b03166340c10f196117243390565b6040516001600160e01b031960e084901b1681526001600160a01b03909116600482015260248101879052604401600060405180830381600087803b15801561176c57600080fd5b505af1158015611780573d6000803e3d6000fd5b50505050806001600160a01b03166340c10f1961179a3390565b6040516001600160e01b031960e084901b1681526001600160a01b03909116600482015260248101879052604401600060405180830381600087803b1580156117e257600080fd5b505af11580156117f6573d6000803e3d6000fd5b5050505050505050565b600754604051600162098b5360e21b031981526000916001600160a01b03169063ffd9d2b49061183890339089908990600401611e77565b6020604051808303816000875af1158015611857573d6000803e3d6000fd5b505050506040513d601f19601f8201168201806040525081019061187b9190611e9b565b507f5d9077e26c239c17c043cbb6da74001b6c7442aad9c1d795a4efaf1d17b5c46183836040516118ad929190611ed6565b60405180910390a1506001949350505050565b600754604051636eb1769f60e11b81526001600160a01b0384811660048301528381166024830152600092169063dd62ed3e90604401602060405180830381865afa158015611913573d6000803e3d6000fd5b505050506040513d601f19601f820116820180604052508101906107439190611ebd565b6000546001600160a01b031633146119615760405162461bcd60e51b81526004016108d4906120b1565b6001600160a01b0381166119c65760405162461bcd60e51b815260206004820152602660248201527f4f776e61626c653a206e6577206f776e657220697320746865207a65726f206160448201526564647265737360d01b60648201526084016108d4565b6119cf81611a7e565b50565b6000546001600160a01b031633146119fc5760405162461bcd60e51b81526004016108d4906120b1565b6001600160a01b038116600081815260016020908152604091829020805460ff1916905590519182527f33d83959be2573f5453b12eb9d43b3499bc57d96bd2f067ba44803c859e811139101611448565b60008184841115611a715760405162461bcd60e51b81526004016108d49190611bfc565b506000610acf84866120e6565b600080546001600160a01b038381166001600160a01b0319831681178455604051919092169283917f8be0079c531659141344cd1fd0a4f28419497f9722a3daafe3b4186f6b6457e09190a35050565b611552806120fe83390190565b80356001600160a01b0381168114611af257600080fd5b919050565b60008083601f840112611b0957600080fd5b50813567ffffffffffffffff811115611b2157600080fd5b602083019150836020828501011115611b3957600080fd5b9250929050565b600080600080600060808688031215611b5857600080fd5b611b6186611adb565b9450611b6f60208701611adb565b935060408601359250606086013567ffffffffffffffff811115611b9257600080fd5b611b9e88828901611af7565b969995985093965092949392505050565b6000815180845260005b81811015611bd557602081850181015186830182015201611bb9565b81811115611be7576000602083870101525b50601f01601f19169290920160200192915050565b6020815260006107436020830184611baf565b60008060408385031215611c2257600080fd5b611c2b83611adb565b946020939093013593505050565b600080600060608486031215611c4e57600080fd5b611c5784611adb565b9250611c6560208501611adb565b9150604084013590509250925092565b600080600080600060a08688031215611c8d57600080fd5b611c9686611adb565b9450611ca460208701611adb565b94979496505050506040830135926060810135926080909101359150565b600080600060608486031215611cd757600080fd5b611ce084611adb565b95602085013595506040909401359392505050565b60008060408385031215611d0857600080fd5b50508035926020909101359150565b600060208284031215611d2957600080fd5b61074382611adb565b600080600060408486031215611d4757600080fd5b83359250602084013567ffffffffffffffff80821115611d6657600080fd5b818601915086601f830112611d7a57600080fd5b813581811115611d8957600080fd5b8760208260051b8501011115611d9e57600080fd5b6020830194508093505050509250925092565b60008060008060808587031215611dc757600080fd5b611dd085611adb565b966020860135965060408601359560600135945092505050565b60008060008060608587031215611e0057600080fd5b611e0985611adb565b935060208501359250604085013567ffffffffffffffff811115611e2c57600080fd5b611e3887828801611af7565b95989497509550505050565b60008060408385031215611e5757600080fd5b611e6083611adb565b9150611e6e60208401611adb565b90509250929050565b6001600160a01b039384168152919092166020820152604081019190915260600190565b600060208284031215611ead57600080fd5b8151801515811461074357600080fd5b600060208284031215611ecf57600080fd5b5051919050565b60208152816020820152818360408301376000818301604090810191909152601f909201601f19160101919050565b600181811c90821680611f1957607f821691505b602082108103611f3957634e487b7160e01b600052602260045260246000fd5b50919050565b60208082526018908201527f4652433735393a20736c696365206e6f74206578697374730000000000000000604082015260600190565b6254465f60e81b8152600060036000845481600182811c915080831680611f9e57607f831692505b60208084108203611fbd57634e487b7160e01b86526022600452602486fd5b818015611fd15760018114611fe657612017565b60ff1986168a890152848a0188019650612017565b60008b81526020902060005b8681101561200d5781548c82018b0152908501908301611ff2565b505087858b010196505b50949998505050505050505050565b60a08152600061203960a0830188611baf565b828103602084015261204b8188611baf565b60ff9690961660408401525050606081019290925260809091015292915050565b634e487b7160e01b600052603260045260246000fd5b634e487b7160e01b600052601160045260246000fd5b6000600182016120aa576120aa612082565b5060010190565b6020808252818101527f4f776e61626c653a2063616c6c6572206973206e6f7420746865206f776e6572604082015260600190565b6000828210156120f8576120f8612082565b50039056fe608060405234801561001057600080fd5b50611532806100206000396000f3fe608060405234801561001057600080fd5b50600436106101005760003560e01c806370a0823111610097578063a9059cbb11610066578063a9059cbb14610224578063dd62ed3e14610237578063e03e7d9614610270578063ffd9d2b41461028357600080fd5b806370a08231146101d857806378e979251461020157806395d89b41146102095780639dc29fac1461021157600080fd5b8063313ce567116100d3578063313ce5671461016e5780633197cbb61461018357806340c10f191461019557806360f96a8f146101a857600080fd5b806306fdde0314610105578063095ea7b3146101235780631f7fd4301461014657806323b872dd1461015b575b600080fd5b61010d610296565b60405161011a9190611137565b60405180910390f35b6101366101313660046111a8565b610328565b604051901515815260200161011a565b610159610154366004611275565b61033e565b005b610136610169366004611303565b6103fd565b60045460405160ff909116815260200161011a565b6006545b60405190815260200161011a565b6101596101a33660046111a8565b61053f565b6007546101c09061010090046001600160a01b031681565b6040516001600160a01b03909116815260200161011a565b6101876101e636600461133f565b6001600160a01b031660009081526020819052604090205490565b600554610187565b61010d610585565b61015961021f3660046111a8565b610594565b6101366102323660046111a8565b61064f565b61018761024536600461135a565b6001600160a01b03918216600090815260016020908152604080832093909416825291909152205490565b61013661027e366004611303565b6106f4565b610136610291366004611303565b61073a565b6060600280546102a59061138d565b80601f01602080910402602001604051908101604052809291908181526020018280546102d19061138d565b801561031e5780601f106102f35761010080835404028352916020019161031e565b820191906000526020600020905b81548152906001019060200180831161030157829003601f168201915b5050505050905090565b6000610335338484610780565b50600192915050565b60075460ff16156103965760405162461bcd60e51b815260206004820152601f60248201527f536c6963653a20616c7265616479206265656e20696e697469616c697a65640060448201526064015b60405180910390fd5b84516103a990600290602088019061109e565b5083516103bd90600390602087019061109e565b506004805460ff9490941660ff19948516179055600591909155600655600780546001600160a81b03191661010033029092169190911760011790555050565b6000600760019054906101000a90046001600160a01b03166001600160a01b03166325929a5e6040518163ffffffff1660e01b8152600401602060405180830381865afa158015610452573d6000803e3d6000fd5b505050506040513d601f19601f8201168201806040525081019061047691906113c7565b15156001146104975760405162461bcd60e51b815260040161038d906113e9565b6104a2848484610939565b6105358433610530856040518060400160405280601981526020017f536c6963653a20746f6f206c65737320616c6c6f77616e636500000000000000815250600160008b6001600160a01b03166001600160a01b03168152602001908152602001600020600061050f3390565b6001600160a01b031681526020810191909152604001600020549190610cca565b610780565b5060019392505050565b60075461010090046001600160a01b0316336001600160a01b0316146105775760405162461bcd60e51b815260040161038d9061142a565b6105818282610d04565b5050565b6060600380546102a59061138d565b60075461010090046001600160a01b0316336001600160a01b0316146105cc5760405162461bcd60e51b815260040161038d9061142a565b806105ec836001600160a01b031660009081526020819052604090205490565b10156106455760405162461bcd60e51b815260206004820152602260248201527f536c6963653a206275726e20616d6f756e7420657863656564732062616c616e604482015261636560f01b606482015260840161038d565b6105818282610f1b565b6000600760019054906101000a90046001600160a01b03166001600160a01b03166325929a5e6040518163ffffffff1660e01b8152600401602060405180830381865afa1580156106a4573d6000803e3d6000fd5b505050506040513d601f19601f820116820180604052508101906106c891906113c7565b15156001146106e95760405162461bcd60e51b815260040161038d906113e9565b610335338484610939565b60075460009061010090046001600160a01b0316336001600160a01b03161461072f5760405162461bcd60e51b815260040161038d9061142a565b610535848484610780565b60075460009061010090046001600160a01b0316336001600160a01b0316146107755760405162461bcd60e51b815260040161038d9061142a565b610535848484610939565b600760019054906101000a90046001600160a01b03166001600160a01b0316635c975abb6040518163ffffffff1660e01b8152600401602060405180830381865afa1580156107d3573d6000803e3d6000fd5b505050506040513d601f19601f820116820180604052508101906107f791906113c7565b156108145760405162461bcd60e51b815260040161038d90611461565b6001600160a01b0383166108765760405162461bcd60e51b8152602060048201526024808201527f536c6963653a20617070726f76652066726f6d20746865207a65726f206164646044820152637265737360e01b606482015260840161038d565b6001600160a01b0382166108d75760405162461bcd60e51b815260206004820152602260248201527f536c6963653a20617070726f766520746f20746865207a65726f206164647265604482015261737360f01b606482015260840161038d565b6001600160a01b0383811660008181526001602090815260408083209487168084529482529182902085905590518481527f8c5be1e5ebec7d5bd14f71427d1e84f3dd0314c0f7b2291e5b200ac8c7c3b92591015b60405180910390a3505050565b600760019054906101000a90046001600160a01b03166001600160a01b0316635c975abb6040518163ffffffff1660e01b8152600401602060405180830381865afa15801561098c573d6000803e3d6000fd5b505050506040513d601f19601f820116820180604052508101906109b091906113c7565b156109cd5760405162461bcd60e51b815260040161038d90611461565b60075460405163e596219560e01b81526001600160a01b0385811660048301526101009092049091169063e596219590602401602060405180830381865afa158015610a1d573d6000803e3d6000fd5b505050506040513d601f19601f82011682018060405250810190610a4191906113c7565b15610a865760405162461bcd60e51b815260206004820152601560248201527414db1a58d94e881cd95b99195c88189b1bd8dad959605a1b604482015260640161038d565b60075460405163e596219560e01b81526001600160a01b0384811660048301526101009092049091169063e596219590602401602060405180830381865afa158015610ad6573d6000803e3d6000fd5b505050506040513d601f19601f82011682018060405250810190610afa91906113c7565b15610b475760405162461bcd60e51b815260206004820152601860248201527f536c6963653a20726563697069656e7420626c6f636b65640000000000000000604482015260640161038d565b6001600160a01b038316610bab5760405162461bcd60e51b815260206004820152602560248201527f536c6963653a207472616e736665722066726f6d20746865207a65726f206164604482015264647265737360d81b606482015260840161038d565b6001600160a01b038216610c0d5760405162461bcd60e51b815260206004820152602360248201527f536c6963653a207472616e7366657220746f20746865207a65726f206164647260448201526265737360e81b606482015260840161038d565b610c4a816040518060600160405280602681526020016114d7602691396001600160a01b0386166000908152602081905260409020549190610cca565b6001600160a01b038085166000908152602081905260408082209390935590841681522054610c799082611038565b6001600160a01b038381166000818152602081815260409182902094909455518481529092918616917fddf252ad1be2c89b69c2b068fc378daa952ba7f163c4a11628f55a4df523b3ef910161092c565b60008184841115610cee5760405162461bcd60e51b815260040161038d9190611137565b506000610cfb84866114a7565b95945050505050565b600760019054906101000a90046001600160a01b03166001600160a01b0316635c975abb6040518163ffffffff1660e01b8152600401602060405180830381865afa158015610d57573d6000803e3d6000fd5b505050506040513d601f19601f82011682018060405250810190610d7b91906113c7565b15610d985760405162461bcd60e51b815260040161038d90611461565b60075460405163e596219560e01b81526001600160a01b0384811660048301526101009092049091169063e596219590602401602060405180830381865afa158015610de8573d6000803e3d6000fd5b505050506040513d601f19601f82011682018060405250810190610e0c91906113c7565b15610e525760405162461bcd60e51b815260206004820152601660248201527514db1a58d94e881858d8dbdd5b9d08189b1bd8dad95960521b604482015260640161038d565b60008111610ea25760405162461bcd60e51b815260206004820152601d60248201527f536c6963653a20696e76616c696420616d6f756e7420746f206d696e74000000604482015260640161038d565b6001600160a01b038216600090815260208190526040902054610ec59082611038565b6001600160a01b038316600081815260208181526040808320949094559251848152919290917fddf252ad1be2c89b69c2b068fc378daa952ba7f163c4a11628f55a4df523b3ef91015b60405180910390a35050565b600760019054906101000a90046001600160a01b03166001600160a01b0316635c975abb6040518163ffffffff1660e01b8152600401602060405180830381865afa158015610f6e573d6000803e3d6000fd5b505050506040513d601f19601f82011682018060405250810190610f9291906113c7565b15610faf5760405162461bcd60e51b815260040161038d90611461565b610fec816040518060600160405280602681526020016114d7602691396001600160a01b0385166000908152602081905260409020549190610cca565b6001600160a01b03831660008181526020818152604080832094909455925184815290927fddf252ad1be2c89b69c2b068fc378daa952ba7f163c4a11628f55a4df523b3ef9101610f0f565b60008061104583856114be565b9050838110156110975760405162461bcd60e51b815260206004820152601b60248201527f536166654d6174683a206164646974696f6e206f766572666c6f770000000000604482015260640161038d565b9392505050565b8280546110aa9061138d565b90600052602060002090601f0160209004810192826110cc5760008555611112565b82601f106110e557805160ff1916838001178555611112565b82800160010185558215611112579182015b828111156111125782518255916020019190600101906110f7565b5061111e929150611122565b5090565b5b8082111561111e5760008155600101611123565b600060208083528351808285015260005b8181101561116457858101830151858201604001528201611148565b81811115611176576000604083870101525b50601f01601f1916929092016040019392505050565b80356001600160a01b03811681146111a357600080fd5b919050565b600080604083850312156111bb57600080fd5b6111c48361118c565b946020939093013593505050565b634e487b7160e01b600052604160045260246000fd5b600082601f8301126111f957600080fd5b813567ffffffffffffffff80821115611214576112146111d2565b604051601f8301601f19908116603f0116810190828211818310171561123c5761123c6111d2565b8160405283815286602085880101111561125557600080fd5b836020870160208301376000602085830101528094505050505092915050565b600080600080600060a0868803121561128d57600080fd5b853567ffffffffffffffff808211156112a557600080fd5b6112b189838a016111e8565b965060208801359150808211156112c757600080fd5b506112d4888289016111e8565b945050604086013560ff811681146112eb57600080fd5b94979396509394606081013594506080013592915050565b60008060006060848603121561131857600080fd5b6113218461118c565b925061132f6020850161118c565b9150604084013590509250925092565b60006020828403121561135157600080fd5b6110978261118c565b6000806040838503121561136d57600080fd5b6113768361118c565b91506113846020840161118c565b90509250929050565b600181811c908216806113a157607f821691505b6020821081036113c157634e487b7160e01b600052602260045260246000fd5b50919050565b6000602082840312156113d957600080fd5b8151801515811461109757600080fd5b60208082526021908201527f536c6963653a20736c696365207472616e73666572206e6f7420616c6c6f77656040820152601960fa1b606082015260800190565b6020808252601c908201527f536c6963653a2063616c6c6572206d75737420626520706172656e7400000000604082015260600190565b60208082526016908201527514db1a58d94e8818dbdb9d1c9858dd081c185d5cd95960521b604082015260600190565b634e487b7160e01b600052601160045260246000fd5b6000828210156114b9576114b9611491565b500390565b600082198211156114d1576114d1611491565b50019056fe536c6963653a207472616e7366657220616d6f756e7420657863656564732062616c616e6365a264697066735822122006d1359c915516610684bf2ea5e4f0d50437694a1399fda1b02f77eb316f537264736f6c634300080d0033a264697066735822122078fc66da368ddbeee871f6e6275a9c0b0368ce9ded83935ba8e0660efc8dee1164736f6c634300080d0033608060405234801561001057600080fd5b50611532806100206000396000f3fe608060405234801561001057600080fd5b50600436106101005760003560e01c806370a0823111610097578063a9059cbb11610066578063a9059cbb14610224578063dd62ed3e14610237578063e03e7d9614610270578063ffd9d2b41461028357600080fd5b806370a08231146101d857806378e979251461020157806395d89b41146102095780639dc29fac1461021157600080fd5b8063313ce567116100d3578063313ce5671461016e5780633197cbb61461018357806340c10f191461019557806360f96a8f146101a857600080fd5b806306fdde0314610105578063095ea7b3146101235780631f7fd4301461014657806323b872dd1461015b575b600080fd5b61010d610296565b60405161011a9190611137565b60405180910390f35b6101366101313660046111a8565b610328565b604051901515815260200161011a565b610159610154366004611275565b61033e565b005b610136610169366004611303565b6103fd565b60045460405160ff909116815260200161011a565b6006545b60405190815260200161011a565b6101596101a33660046111a8565b61053f565b6007546101c09061010090046001600160a01b031681565b6040516001600160a01b03909116815260200161011a565b6101876101e636600461133f565b6001600160a01b031660009081526020819052604090205490565b600554610187565b61010d610585565b61015961021f3660046111a8565b610594565b6101366102323660046111a8565b61064f565b61018761024536600461135a565b6001600160a01b03918216600090815260016020908152604080832093909416825291909152205490565b61013661027e366004611303565b6106f4565b610136610291366004611303565b61073a565b6060600280546102a59061138d565b80601f01602080910402602001604051908101604052809291908181526020018280546102d19061138d565b801561031e5780601f106102f35761010080835404028352916020019161031e565b820191906000526020600020905b81548152906001019060200180831161030157829003601f168201915b5050505050905090565b6000610335338484610780565b50600192915050565b60075460ff16156103965760405162461bcd60e51b815260206004820152601f60248201527f536c6963653a20616c7265616479206265656e20696e697469616c697a65640060448201526064015b60405180910390fd5b84516103a990600290602088019061109e565b5083516103bd90600390602087019061109e565b506004805460ff9490941660ff19948516179055600591909155600655600780546001600160a81b03191661010033029092169190911760011790555050565b6000600760019054906101000a90046001600160a01b03166001600160a01b03166325929a5e6040518163ffffffff1660e01b8152600401602060405180830381865afa158015610452573d6000803e3d6000fd5b505050506040513d601f19601f8201168201806040525081019061047691906113c7565b15156001146104975760405162461bcd60e51b815260040161038d906113e9565b6104a2848484610939565b6105358433610530856040518060400160405280601981526020017f536c6963653a20746f6f206c65737320616c6c6f77616e636500000000000000815250600160008b6001600160a01b03166001600160a01b03168152602001908152602001600020600061050f3390565b6001600160a01b031681526020810191909152604001600020549190610cca565b610780565b5060019392505050565b60075461010090046001600160a01b0316336001600160a01b0316146105775760405162461bcd60e51b815260040161038d9061142a565b6105818282610d04565b5050565b6060600380546102a59061138d565b60075461010090046001600160a01b0316336001600160a01b0316146105cc5760405162461bcd60e51b815260040161038d9061142a565b806105ec836001600160a01b031660009081526020819052604090205490565b10156106455760405162461bcd60e51b815260206004820152602260248201527f536c6963653a206275726e20616d6f756e7420657863656564732062616c616e604482015261636560f01b606482015260840161038d565b6105818282610f1b565b6000600760019054906101000a90046001600160a01b03166001600160a01b03166325929a5e6040518163ffffffff1660e01b8152600401602060405180830381865afa1580156106a4573d6000803e3d6000fd5b505050506040513d601f19601f820116820180604052508101906106c891906113c7565b15156001146106e95760405162461bcd60e51b815260040161038d906113e9565b610335338484610939565b60075460009061010090046001600160a01b0316336001600160a01b03161461072f5760405162461bcd60e51b815260040161038d9061142a565b610535848484610780565b60075460009061010090046001600160a01b0316336001600160a01b0316146107755760405162461bcd60e51b815260040161038d9061142a565b610535848484610939565b600760019054906101000a90046001600160a01b03166001600160a01b0316635c975abb6040518163ffffffff1660e01b8152600401602060405180830381865afa1580156107d3573d6000803e3d6000fd5b505050506040513d601f19601f820116820180604052508101906107f791906113c7565b156108145760405162461bcd60e51b815260040161038d90611461565b6001600160a01b0383166108765760405162461bcd60e51b8152602060048201526024808201527f536c6963653a20617070726f76652066726f6d20746865207a65726f206164646044820152637265737360e01b606482015260840161038d565b6001600160a01b0382166108d75760405162461bcd60e51b815260206004820152602260248201527f536c6963653a20617070726f766520746f20746865207a65726f206164647265604482015261737360f01b606482015260840161038d565b6001600160a01b0383811660008181526001602090815260408083209487168084529482529182902085905590518481527f8c5be1e5ebec7d5bd14f71427d1e84f3dd0314c0f7b2291e5b200ac8c7c3b92591015b60405180910390a3505050565b600760019054906101000a90046001600160a01b03166001600160a01b0316635c975abb6040518163ffffffff1660e01b8152600401602060405180830381865afa15801561098c573d6000803e3d6000fd5b505050506040513d601f19601f820116820180604052508101906109b091906113c7565b156109cd5760405162461bcd60e51b815260040161038d90611461565b60075460405163e596219560e01b81526001600160a01b0385811660048301526101009092049091169063e596219590602401602060405180830381865afa158015610a1d573d6000803e3d6000fd5b505050506040513d601f19601f82011682018060405250810190610a4191906113c7565b15610a865760405162461bcd60e51b815260206004820152601560248201527414db1a58d94e881cd95b99195c88189b1bd8dad959605a1b604482015260640161038d565b60075460405163e596219560e01b81526001600160a01b0384811660048301526101009092049091169063e596219590602401602060405180830381865afa158015610ad6573d6000803e3d6000fd5b505050506040513d601f19601f82011682018060405250810190610afa91906113c7565b15610b475760405162461bcd60e51b815260206004820152601860248201527f536c6963653a20726563697069656e7420626c6f636b65640000000000000000604482015260640161038d565b6001600160a01b038316610bab5760405162461bcd60e51b815260206004820152602560248201527f536c6963653a207472616e736665722066726f6d20746865207a65726f206164604482015264647265737360d81b606482015260840161038d565b6001600160a01b038216610c0d5760405162461bcd60e51b815260206004820152602360248201527f536c6963653a207472616e7366657220746f20746865207a65726f206164647260448201526265737360e81b606482015260840161038d565b610c4a816040518060600160405280602681526020016114d7602691396001600160a01b0386166000908152602081905260409020549190610cca565b6001600160a01b038085166000908152602081905260408082209390935590841681522054610c799082611038565b6001600160a01b038381166000818152602081815260409182902094909455518481529092918616917fddf252ad1be2c89b69c2b068fc378daa952ba7f163c4a11628f55a4df523b3ef910161092c565b60008184841115610cee5760405162461bcd60e51b815260040161038d9190611137565b506000610cfb84866114a7565b95945050505050565b600760019054906101000a90046001600160a01b03166001600160a01b0316635c975abb6040518163ffffffff1660e01b8152600401602060405180830381865afa158015610d57573d6000803e3d6000fd5b505050506040513d601f19601f82011682018060405250810190610d7b91906113c7565b15610d985760405162461bcd60e51b815260040161038d90611461565b60075460405163e596219560e01b81526001600160a01b0384811660048301526101009092049091169063e596219590602401602060405180830381865afa158015610de8573d6000803e3d6000fd5b505050506040513d601f19601f82011682018060405250810190610e0c91906113c7565b15610e525760405162461bcd60e51b815260206004820152601660248201527514db1a58d94e881858d8dbdd5b9d08189b1bd8dad95960521b604482015260640161038d565b60008111610ea25760405162461bcd60e51b815260206004820152601d60248201527f536c6963653a20696e76616c696420616d6f756e7420746f206d696e74000000604482015260640161038d565b6001600160a01b038216600090815260208190526040902054610ec59082611038565b6001600160a01b038316600081815260208181526040808320949094559251848152919290917fddf252ad1be2c89b69c2b068fc378daa952ba7f163c4a11628f55a4df523b3ef91015b60405180910390a35050565b600760019054906101000a90046001600160a01b03166001600160a01b0316635c975abb6040518163ffffffff1660e01b8152600401602060405180830381865afa158015610f6e573d6000803e3d6000fd5b505050506040513d601f19601f82011682018060405250810190610f9291906113c7565b15610faf5760405162461bcd60e51b815260040161038d90611461565b610fec816040518060600160405280602681526020016114d7602691396001600160a01b0385166000908152602081905260409020549190610cca565b6001600160a01b03831660008181526020818152604080832094909455925184815290927fddf252ad1be2c89b69c2b068fc378daa952ba7f163c4a11628f55a4df523b3ef9101610f0f565b60008061104583856114be565b9050838110156110975760405162461bcd60e51b815260206004820152601b60248201527f536166654d6174683a206164646974696f6e206f766572666c6f770000000000604482015260640161038d565b9392505050565b8280546110aa9061138d565b90600052602060002090601f0160209004810192826110cc5760008555611112565b82601f106110e557805160ff1916838001178555611112565b82800160010185558215611112579182015b828111156111125782518255916020019190600101906110f7565b5061111e929150611122565b5090565b5b8082111561111e5760008155600101611123565b600060208083528351808285015260005b8181101561116457858101830151858201604001528201611148565b81811115611176576000604083870101525b50601f01601f1916929092016040019392505050565b80356001600160a01b03811681146111a357600080fd5b919050565b600080604083850312156111bb57600080fd5b6111c48361118c565b946020939093013593505050565b634e487b7160e01b600052604160045260246000fd5b600082601f8301126111f957600080fd5b813567ffffffffffffffff80821115611214576112146111d2565b604051601f8301601f19908116603f0116810190828211818310171561123c5761123c6111d2565b8160405283815286602085880101111561125557600080fd5b836020870160208301376000602085830101528094505050505092915050565b600080600080600060a0868803121561128d57600080fd5b853567ffffffffffffffff808211156112a557600080fd5b6112b189838a016111e8565b965060208801359150808211156112c757600080fd5b506112d4888289016111e8565b945050604086013560ff811681146112eb57600080fd5b94979396509394606081013594506080013592915050565b60008060006060848603121561131857600080fd5b6113218461118c565b925061132f6020850161118c565b9150604084013590509250925092565b60006020828403121561135157600080fd5b6110978261118c565b6000806040838503121561136d57600080fd5b6113768361118c565b91506113846020840161118c565b90509250929050565b600181811c908216806113a157607f821691505b6020821081036113c157634e487b7160e01b600052602260045260246000fd5b50919050565b6000602082840312156113d957600080fd5b8151801515811461109757600080fd5b60208082526021908201527f536c6963653a20736c696365207472616e73666572206e6f7420616c6c6f77656040820152601960fa1b606082015260800190565b6020808252601c908201527f536c6963653a2063616c6c6572206d75737420626520706172656e7400000000604082015260600190565b60208082526016908201527514db1a58d94e8818dbdb9d1c9858dd081c185d5cd95960521b604082015260600190565b634e487b7160e01b600052601160045260246000fd5b6000828210156114b9576114b9611491565b500390565b600082198211156114d1576114d1611491565b50019056fe536c6963653a207472616e7366657220616d6f756e7420657863656564732062616c616e6365a264697066735822122006d1359c915516610684bf2ea5e4f0d50437694a1399fda1b02f77eb316f537264736f6c634300080d0033",
    "linkReferences": {}
  }
}