{
  "abi": [
    {
      "inputs": [
        {
          "internalType": "string",
          "name": "name_",
          "type": "string"
        },
        {
          "internalType": "string",
          "name": "symbol_",
          "type": "string"
        },
        {
          "internalType": "uint8",
          "name": "decimals_",
          "type": "uint8"
        },
        {
          "internalType": "uint256",
          "name": "maxSupply_",
          "type": "uint256"
        }
      ],
      "stateMutability": "nonpayable",
      "type": "constructor"
    },
    {
      "anonymous": false,
      "inputs": [
        {
          "indexed": false,
          "internalType": "bytes",
          "name": "data",
          "type": "bytes"
        }
      ],
      "name": "DataDelivery",
      "type": "event"
    },
    {
      "anonymous": false,
      "inputs": [
        {
          "indexed": true,
          "internalType": "address",
          "name": "sliceAddr",
          "type": "address"
        },
        {
          "indexed": false,
          "internalType": "uint256",
          "name": "start",
          "type": "uint256"
        },
        {
          "indexed": false,
          "internalType": "uint256",
          "name": "end",
          "type": "uint256"
        }
      ],
      "name": "SliceCreated",
      "type": "event"
    },
    {
      "inputs": [],
      "name": "MAX_TIME",
      "outputs": [
        {
          "internalType": "uint256",
          "name": "",
          "type": "uint256"
        }
      ],
      "stateMutability": "view",
      "type": "function"
    },
    {
      "inputs": [],
      "name": "MIN_TIME",
      "outputs": [
        {
          "internalType": "uint256",
          "name": "",
          "type": "uint256"
        }
      ],
      "stateMutability": "view",
      "type": "function"
    },
    {
      "inputs": [],
      "name": "allowSliceTransfer",
      "outputs": [
        {
          "internalType": "bool",
          "name": "",
          "type": "bool"
        }
      ],
      "stateMutability": "view",
      "type": "function"
    },
    {
      "inputs": [
        {
          "internalType": "address",
          "name": "owner",
          "type": "address"
        },
        {
          "internalType": "address",
          "name": "spender",
          "type": "address"
        }
      ],
      "name": "allowance",
      "outputs": [
        {
          "internalType": "uint256",
          "name": "",
          "type": "uint256"
        }
      ],
      "stateMutability": "view",
      "type": "function"
    },
    {
      "inputs": [
        {
          "internalType": "address",
          "name": "spender",
          "type": "address"
        },
        {
          "internalType": "uint256",
          "name": "amount",
          "type": "uint256"
        }
      ],
      "name": "approve",
      "outputs": [
        {
          "internalType": "bool",
          "name": "",
          "type": "bool"
        }
      ],
      "stateMutability": "nonpayable",
      "type": "function"
    },
    {
      "inputs": [
        {
          "internalType": "address",
          "name": "account",
          "type": "address"
        }
      ],
      "name": "balanceOf",
      "outputs": [
        {
          "internalType": "uint256",
          "name": "",
          "type": "uint256"
        }
      ],
      "stateMutability": "view",
      "type": "function"
    },
    {
      "inputs": [
        {
          "internalType": "address",
          "name": "",
          "type": "address"
        }
      ],
      "name": "blocked",
      "outputs": [
        {
          "internalType": "bool",
          "name": "",
          "type": "bool"
        }
      ],
      "stateMutability": "view",
      "type": "function"
    },
    {
      "inputs": [
        {
          "internalType": "uint256",
          "name": "start",
          "type": "uint256"
        },
        {
          "internalType": "uint256",
          "name": "end",
          "type": "uint256"
        }
      ],
      "name": "createSlice",
      "outputs": [
        {
          "internalType": "address",
          "name": "sliceAddr",
          "type": "address"
        }
      ],
      "stateMutability": "nonpayable",
      "type": "function"
    },
    {
      "inputs": [],
      "name": "decimals",
      "outputs": [
        {
          "internalType": "uint8",
          "name": "",
          "type": "uint8"
        }
      ],
      "stateMutability": "view",
      "type": "function"
    },
    {
      "inputs": [],
      "name": "fullTimeToken",
      "outputs": [
        {
          "internalType": "address",
          "name": "",
          "type": "address"
        }
      ],
      "stateMutability": "view",
      "type": "function"
    },
    {
      "inputs": [
        {
          "internalType": "uint256",
          "name": "start",
          "type": "uint256"
        },
        {
          "internalType": "uint256",
          "name": "end",
          "type": "uint256"
        }
      ],
      "name": "getSlice",
      "outputs": [
        {
          "internalType": "address",
          "name": "",
          "type": "address"
        }
      ],
      "stateMutability": "view",
      "type": "function"
    },
    {
      "inputs": [],
      "name": "maxSupply",
      "outputs": [
        {
          "internalType": "uint256",
          "name": "",
          "type": "uint256"
        }
      ],
      "stateMutability": "view",
      "type": "function"
    },
    {
      "inputs": [
        {
          "internalType": "uint256",
          "name": "amount",
          "type": "uint256"
        },
        {
          "internalType": "address[]",
          "name": "slices",
          "type": "address[]"
        }
      ],
      "name": "mergeSlices",
      "outputs": [],
      "stateMutability": "nonpayable",
      "type": "function"
    },
    {
      "inputs": [],
      "name": "name",
      "outputs": [
        {
          "internalType": "string",
          "name": "",
          "type": "string"
        }
      ],
      "stateMutability": "view",
      "type": "function"
    },
    {
      "inputs": [],
      "name": "paused",
      "outputs": [
        {
          "internalType": "bool",
          "name": "",
          "type": "bool"
        }
      ],
      "stateMutability": "view",
      "type": "function"
    },
    {
      "inputs": [
        {
          "internalType": "uint256",
          "name": "amount",
          "type": "uint256"
        },
        {
          "internalType": "uint256",
          "name": "sliceTime",
          "type": "uint256"
        }
      ],
      "name": "sliceByTime",
      "outputs": [],
      "stateMutability": "nonpayable",
      "type": "function"
    },
    {
      "inputs": [],
      "name": "symbol",
      "outputs": [
        {
          "internalType": "string",
          "name": "",
          "type": "string"
        }
      ],
      "stateMutability": "view",
      "type": "function"
    },
    {
      "inputs": [
        {
          "internalType": "address",
          "name": "account",
          "type": "address"
        },
        {
          "internalType": "uint256",
          "name": "start",
          "type": "uint256"
        },
        {
          "internalType": "uint256",
          "name": "end",
          "type": "uint256"
        }
      ],
      "name": "timeBalanceOf",
      "outputs": [
        {
          "internalType": "uint256",
          "name": "",
          "type": "uint256"
        }
      ],
      "stateMutability": "view",
      "type": "function"
    },
    {
      "inputs": [
        {
          "internalType": "address",
          "name": "recipient",
          "type": "address"
        },
        {
          "internalType": "uint256",
          "name": "amount",
          "type": "uint256"
        },
        {
          "internalType": "uint256",
          "name": "start",
          "type": "uint256"
        },
        {
          "internalType": "uint256",
          "name": "end",
          "type": "uint256"
        }
      ],
      "name": "timeSliceTransfer",
      "outputs": [
        {
          "internalType": "bool",
          "name": "",
          "type": "bool"
        }
      ],
      "stateMutability": "nonpayable",
      "type": "function"
    },
    {
      "inputs": [
        {
          "internalType": "address",
          "name": "sender",
          "type": "address"
        },
        {
          "internalType": "address",
          "name": "recipient",
          "type": "address"
        },
        {
          "internalType": "uint256",
          "name": "amount",
          "type": "uint256"
        },
        {
          "internalType": "uint256",
          "name": "start",
          "type": "uint256"
        },
        {
          "internalType": "uint256",
          "name": "end",
          "type": "uint256"
        }
      ],
      "name": "timeSliceTransferFrom",
      "outputs": [
        {
          "internalType": "bool",
          "name": "",
          "type": "bool"
        }
      ],
      "stateMutability": "nonpayable",
      "type": "function"
    },
    {
      "inputs": [],
      "name": "totalSupply",
      "outputs": [
        {
          "internalType": "uint256",
          "name": "",
          "type": "uint256"
        }
      ],
      "stateMutability": "view",
      "type": "function"
    },
    {
      "inputs": [
        {
          "internalType": "address",
          "name": "recipient",
          "type": "address"
        },
        {
          "internalType": "uint256",
          "name": "amount",
          "type": "uint256"
        }
      ],
      "name": "transfer",
      "outputs": [
        {
          "internalType": "bool",
          "name": "",
          "type": "bool"
        }
      ],
      "stateMutability": "nonpayable",
      "type": "function"
    },
    {
      "inputs": [
        {
          "internalType": "address",
          "name": "recipient",
          "type": "address"
        },
        {
          "internalType": "uint256",
          "name": "amount",
          "type": "uint256"
        },
        {
          "internalType": "bytes",
          "name": "data",
          "type": "bytes"
        }
      ],
      "name": "transferData",
      "outputs": [
        {
          "internalType": "bool",
          "name": "",
          "type": "bool"
        }
      ],
      "stateMutability": "nonpayable",
      "type": "function"
    },
    {
      "inputs": [
        {
          "internalType": "address",
          "name": "sender",
          "type": "address"
        },
        {
          "internalType": "address",
          "name": "recipient",
          "type": "address"
        },
        {
          "internalType": "uint256",
          "name": "amount",
          "type": "uint256"
        }
      ],
      "name": "transferFrom",
      "outputs": [
        {
          "internalType": "bool",
          "name": "",
          "type": "bool"
        }
      ],
      "stateMutability": "nonpayable",
      "type": "function"
    },
    {
      "inputs": [
        {
          "internalType": "address",
          "name": "sender",
          "type": "address"
        },
        {
          "internalType": "address",
          "name": "recipient",
          "type": "address"
        },
        {
          "internalType": "uint256",
          "name": "amount",
          "type": "uint256"
        },
        {
          "internalType": "bytes",
          "name": "data",
          "type": "bytes"
        }
      ],
      "name": "transferFromData",
      "outputs": [
        {
          "internalType": "bool",
          "name": "",
          "type": "bool"
        }
      ],
      "stateMutability": "nonpayable",
      "type": "function"
    }
  ],
  "bytecode": {
    "object": "0x60806040523480156200001157600080fd5b5060405162004fee38038062004fee83398101604081905262000034916200052b565b8351620000499060009060208701906200039d565b5082516200005f9060019060208601906200039d565b506002805460ff191660ff841617905560048190556200008860006001600160401b03620000b3565b600580546001600160a01b0319166001600160a01b0392909216919091179055506200072292505050565b6000828211620001235760405162461bcd60e51b815260206004820152603060248201527f4652433735393a20746f6b656e456e64206d757374206265206772656174657260448201526f081d1a185b881d1bdad95b94dd185c9d60821b60648201526084015b60405180910390fd5b6001600160401b03821115620001905760405162461bcd60e51b815260206004820152602b60248201527f4652433735393a20746f6b656e456e64206d757374206265206c65737320746860448201526a616e204d41585f54494d4560a81b60648201526084016200011a565b60008381526007602090815260408083208584529091529020546001600160a01b031615620002025760405162461bcd60e51b815260206004820152601c60248201527f4652433735393a20736c69636520616c7265616479206578697374730000000060448201526064016200011a565b60006040518060200162000216906200042c565b601f1982820381018352601f909101166040818152602082018790528101859052909150600090606001604051602081830303815290604052805190602001209050808251602084016000f59250823b6200027057600080fd5b826001600160a01b0316631f7fd4306000604051602001620002939190620005f2565b6040516020818303038152906040526001604051602001620002b69190620005f2565b60408051601f19818403018152908290526002546001600160e01b031960e086901b168352620002f4939260ff909116908b908b90600401620006d8565b600060405180830381600087803b1580156200030f57600080fd5b505af115801562000324573d6000803e3d6000fd5b505050600086815260076020908152604080832088845282529182902080546001600160a01b0319166001600160a01b038816908117909155825189815291820188905292507f7a125dd6ae425051553afec88e88ac82cd38bd3c7ef1688fa968694ed9490290910160405180910390a2505092915050565b828054620003ab90620005b6565b90600052602060002090601f016020900481019282620003cf57600085556200041a565b82601f10620003ea57805160ff19168380011785556200041a565b828001600101855582156200041a579182015b828111156200041a578251825591602001919060010190620003fd565b50620004289291506200043a565b5090565b6115528062003a9c83390190565b5b808211156200042857600081556001016200043b565b634e487b7160e01b600052604160045260246000fd5b60005b83811015620004845781810151838201526020016200046a565b8381111562000494576000848401525b50505050565b600082601f830112620004ac57600080fd5b81516001600160401b0380821115620004c957620004c962000451565b604051601f8301601f19908116603f01168101908282118183101715620004f457620004f462000451565b816040528381528660208588010111156200050e57600080fd5b6200052184602083016020890162000467565b9695505050505050565b600080600080608085870312156200054257600080fd5b84516001600160401b03808211156200055a57600080fd5b62000568888389016200049a565b955060208701519150808211156200057f57600080fd5b506200058e878288016200049a565b935050604085015160ff81168114620005a657600080fd5b6060959095015193969295505050565b600181811c90821680620005cb57607f821691505b602082108103620005ec57634e487b7160e01b600052602260045260246000fd5b50919050565b6254465f60e81b8152600060036000845481600182811c9150808316806200061b57607f831692505b602080841082036200063b57634e487b7160e01b86526022600452602486fd5b81801562000652576001811462000668576200069b565b60ff1986168a890152848a01880196506200069b565b60008b81526020902060005b86811015620006915781548c82018b015290850190830162000674565b505087858b010196505b50949998505050505050505050565b60008151808452620006c481602086016020860162000467565b601f01601f19169290920160200192915050565b60a081526000620006ed60a0830188620006aa565b8281036020840152620007018188620006aa565b60ff9690961660408401525050606081019290925260809091015292915050565b61336a80620007326000396000f3fe608060405234801561001057600080fd5b50600436106101735760003560e01c80635c975abb116100de578063a4c45c0611610097578063c0e37b1511610071578063c0e37b1514610330578063d5abeb0114610343578063dd62ed3e1461034c578063e59621951461035f57600080fd5b8063a4c45c06146102f7578063a9059cbb1461030a578063b886d81a1461031d57600080fd5b80635c975abb146102985780635d239d3e146102ac57806370a08231146102bf5780638ff07b5b146102d257806395d89b41146102da578063a0905e43146102e257600080fd5b8063269499841161013057806326949984146102065780632b53be31146102155780632cdc68c414610240578063313ce567146102535780633363b01d146102725780634b04b3cf1461028557600080fd5b806302e95d041461017857806306fdde03146101a0578063095ea7b3146101b557806318160ddd146101c857806323b872dd146101df57806325929a5e146101f2575b600080fd5b61018b61018636600461185a565b610382565b60405190151581526020015b60405180910390f35b6101a8610579565b6040516101979190611916565b61018b6101c3366004611929565b610607565b6101d160035481565b604051908152602001610197565b61018b6101ed366004611953565b610686565b60055461018b90600160a81b900460ff1681565b6101d167ffffffffffffffff81565b600554610228906001600160a01b031681565b6040516001600160a01b039091168152602001610197565b61018b61024e36600461198f565b6107d0565b6002546102609060ff1681565b60405160ff9091168152602001610197565b6101d16102803660046119dc565b610961565b610228610293366004611a0f565b610a14565b60055461018b90600160a01b900460ff1681565b6102286102ba366004611a0f565b610cea565b6101d16102cd366004611a31565b610d10565b6101d1600081565b6101a8610d85565b6102f56102f0366004611a4c565b610d92565b005b61018b610305366004611acb565b611247565b61018b610318366004611929565b61130a565b6102f561032b366004611a0f565b61138f565b61018b61033e366004611b04565b611680565b6101d160045481565b6101d161035a366004611b5e565b611740565b61018b61036d366004611a31565b60066020526000908152604090205460ff1681565b600554604051600162098b5360e21b031981526000916001600160a01b03169063ffd9d2b4906103ba90899089908990600401611b91565b6020604051808303816000875af11580156103d9573d6000803e3d6000fd5b505050506040513d601f19601f820116820180604052508101906103fd9190611bb5565b506005546001600160a01b031663e03e7d96873360408051808201909152601a8152794652433735393a20746f6f206c65737320616c6c6f77616e636560301b60208201526005546104d2918a916001600160a01b031663dd62ed3e8e335b6040516001600160e01b031960e085901b1681526001600160a01b03928316600482015291166024820152604401602060405180830381865afa1580156104a7573d6000803e3d6000fd5b505050506040513d601f19601f820116820180604052508101906104cb9190611bd7565b91906117b7565b6040518463ffffffff1660e01b81526004016104f093929190611b91565b6020604051808303816000875af115801561050f573d6000803e3d6000fd5b505050506040513d601f19601f820116820180604052508101906105339190611bb5565b507f5d9077e26c239c17c043cbb6da74001b6c7442aad9c1d795a4efaf1d17b5c4618383604051610565929190611bf0565b60405180910390a150600195945050505050565b6000805461058690611c1f565b80601f01602080910402602001604051908101604052809291908181526020018280546105b290611c1f565b80156105ff5780601f106105d4576101008083540402835291602001916105ff565b820191906000526020600020905b8154815290600101906020018083116105e257829003601f168201915b505050505081565b60055460405163701f3ecb60e11b81526000916001600160a01b03169063e03e7d969061063c90339087908790600401611b91565b6020604051808303816000875af115801561065b573d6000803e3d6000fd5b505050506040513d601f19601f8201168201806040525081019061067f9190611bb5565b9392505050565b600554604051600162098b5360e21b031981526000916001600160a01b03169063ffd9d2b4906106be90879087908790600401611b91565b6020604051808303816000875af11580156106dd573d6000803e3d6000fd5b505050506040513d601f19601f820116820180604052508101906107019190611bb5565b506005546001600160a01b031663e03e7d96853360408051808201909152601a8152794652433735393a20746f6f206c65737320616c6c6f77616e636560301b60208201526005546107649188916001600160a01b031663dd62ed3e8c3361045c565b6040518463ffffffff1660e01b815260040161078293929190611b91565b6020604051808303816000875af11580156107a1573d6000803e3d6000fd5b505050506040513d601f19601f820116820180604052508101906107c59190611bb5565b506001949350505050565b60008281526007602090815260408083208484529091528120546001600160a01b0316806108195760405162461bcd60e51b815260040161081090611c59565b60405180910390fd5b604051600162098b5360e21b031981526001600160a01b0382169063ffd9d2b49061084c908a908a908a90600401611b91565b6020604051808303816000875af115801561086b573d6000803e3d6000fd5b505050506040513d601f19601f8201168201806040525081019061088f9190611bb5565b506005546001600160a01b031663e03e7d96883360408051808201909152601a8152794652433735393a20746f6f206c65737320616c6c6f77616e636560301b60208201526005546108f2918b916001600160a01b031663dd62ed3e8f3361045c565b6040518463ffffffff1660e01b815260040161091093929190611b91565b6020604051808303816000875af115801561092f573d6000803e3d6000fd5b505050506040513d601f19601f820116820180604052508101906109539190611bb5565b506001979650505050505050565b60008281526007602090815260408083208484529091528120546001600160a01b0316806109a15760405162461bcd60e51b815260040161081090611c59565b6040516370a0823160e01b81526001600160a01b0386811660048301528216906370a0823190602401602060405180830381865afa1580156109e7573d6000803e3d6000fd5b505050506040513d601f19601f82011682018060405250810190610a0b9190611bd7565b95945050505050565b6000828211610a7e5760405162461bcd60e51b815260206004820152603060248201527f4652433735393a20746f6b656e456e64206d757374206265206772656174657260448201526f081d1a185b881d1bdad95b94dd185c9d60821b6064820152608401610810565b67ffffffffffffffff821115610aea5760405162461bcd60e51b815260206004820152602b60248201527f4652433735393a20746f6b656e456e64206d757374206265206c65737320746860448201526a616e204d41585f54494d4560a81b6064820152608401610810565b60008381526007602090815260408083208584529091529020546001600160a01b031615610b5a5760405162461bcd60e51b815260206004820152601c60248201527f4652433735393a20736c69636520616c726561647920657869737473000000006044820152606401610810565b600060405180602001610b6c906117e8565b601f1982820381018352601f909101166040818152602082018790528101859052909150600090606001604051602081830303815290604052805190602001209050808251602084016000f59250823b610bc557600080fd5b826001600160a01b0316631f7fd4306000604051602001610be69190611c90565b6040516020818303038152906040526001604051602001610c079190611c90565b60408051601f19818403018152908290526002546001600160e01b031960e086901b168352610c43939260ff909116908b908b90600401611d40565b600060405180830381600087803b158015610c5d57600080fd5b505af1158015610c71573d6000803e3d6000fd5b505050600086815260076020908152604080832088845282529182902080546001600160a01b0319166001600160a01b038816908117909155825189815291820188905292507f7a125dd6ae425051553afec88e88ac82cd38bd3c7ef1688fa968694ed9490290910160405180910390a2505092915050565b60009182526007602090815260408084209284529190529020546001600160a01b031690565b6005546040516370a0823160e01b81526001600160a01b03838116600483015260009216906370a0823190602401602060405180830381865afa158015610d5b573d6000803e3d6000fd5b505050506040513d601f19601f82011682018060405250810190610d7f9190611bd7565b92915050565b6001805461058690611c1f565b80610ddf5760405162461bcd60e51b815260206004820152601a60248201527f4652433735393a20656d70747920736c696365732061727261790000000000006044820152606401610810565b60008311610e2f5760405162461bcd60e51b815260206004820152601d60248201527f4652433735393a20616d6f756e742063616e6e6f74206265207a65726f0000006044820152606401610810565b6000805b828110156110f4576000848483818110610e4f57610e4f611d86565b9050602002016020810190610e649190611a31565b6001600160a01b03166378e979256040518163ffffffff1660e01b8152600401602060405180830381865afa158015610ea1573d6000803e3d6000fd5b505050506040513d601f19601f82011682018060405250810190610ec59190611bd7565b90506000858584818110610edb57610edb611d86565b9050602002016020810190610ef09190611a31565b6001600160a01b0316633197cbb66040518163ffffffff1660e01b8152600401602060405180830381865afa158015610f2d573d6000803e3d6000fd5b505050506040513d601f19601f82011682018060405250810190610f519190611bd7565b9050610f5d8282610cea565b6001600160a01b0316868685818110610f7857610f78611d86565b9050602002016020810190610f8d9190611a31565b6001600160a01b031614610fe35760405162461bcd60e51b815260206004820152601d60248201527f4652433735393a20696e76616c696420736c69636520616464726573730000006044820152606401610810565b831580610fef57508382145b6110465760405162461bcd60e51b815260206004820152602260248201527f4652433735393a20636f6e74696e756f757320736c6963657320726571756972604482015261195960f21b6064820152608401610810565b85858481811061105857611058611d86565b905060200201602081019061106d9190611a31565b6001600160a01b0316639dc29fac336040516001600160e01b031960e084901b1681526001600160a01b039091166004820152602481018a9052604401600060405180830381600087803b1580156110c457600080fd5b505af11580156110d8573d6000803e3d6000fd5b50505050809350505080806110ec90611db2565b915050610e33565b5060008383600081811061110a5761110a611d86565b905060200201602081019061111f9190611a31565b6001600160a01b03166378e979256040518163ffffffff1660e01b8152600401602060405180830381865afa15801561115c573d6000803e3d6000fd5b505050506040513d601f19601f820116820180604052508101906111809190611bd7565b9050600042821161119057600091505b428311156111bf576111a28284610cea565b90506001600160a01b0381166111bf576111bc8284610a14565b90505b6001600160a01b0381161561123f576001600160a01b0381166340c10f19336040516001600160e01b031960e084901b1681526001600160a01b03909116600482015260248101899052604401600060405180830381600087803b15801561122657600080fd5b505af115801561123a573d6000803e3d6000fd5b505050505b505050505050565b60008281526007602090815260408083208484529091528120546001600160a01b0316806112875760405162461bcd60e51b815260040161081090611c59565b604051600162098b5360e21b031981526001600160a01b0382169063ffd9d2b4906112ba9033908a908a90600401611b91565b6020604051808303816000875af11580156112d9573d6000803e3d6000fd5b505050506040513d601f19601f820116820180604052508101906112fd9190611bb5565b5060019695505050505050565b600554604051600162098b5360e21b031981526000916001600160a01b03169063ffd9d2b49061134290339087908790600401611b91565b6020604051808303816000875af1158015611361573d6000803e3d6000fd5b505050506040513d601f19601f820116820180604052508101906113859190611bb5565b5060019392505050565b428110156113f85760405162461bcd60e51b815260206004820152603060248201527f4652433735393a20736c69636554696d65206d7573742062652067726561746560448201526f72207468616e20626c6f636b54696d6560801b6064820152608401610810565b67ffffffffffffffff81106114685760405162461bcd60e51b815260206004820152603060248201527f4652433735393a20736c69636554696d65206d75737420626520736d616c6c6560448201526f72207468616e20626c6f636b54696d6560801b6064820152608401610810565b600082116114b85760405162461bcd60e51b815260206004820152601d60248201527f4652433735393a20616d6f756e742063616e6e6f74206265207a65726f0000006044820152606401610810565b60006114c5600083610cea565b905060006114db8367ffffffffffffffff610cea565b90506001600160a01b0382166114f9576114f6600084610a14565b91505b6001600160a01b03811661151c576115198367ffffffffffffffff610a14565b90505b6005546001600160a01b0316639dc29fac336040516001600160e01b031960e084901b1681526001600160a01b03909116600482015260248101879052604401600060405180830381600087803b15801561157657600080fd5b505af115801561158a573d6000803e3d6000fd5b50505050816001600160a01b03166340c10f196115a43390565b6040516001600160e01b031960e084901b1681526001600160a01b03909116600482015260248101879052604401600060405180830381600087803b1580156115ec57600080fd5b505af1158015611600573d6000803e3d6000fd5b50505050806001600160a01b03166340c10f1961161a3390565b6040516001600160e01b031960e084901b1681526001600160a01b03909116600482015260248101879052604401600060405180830381600087803b15801561166257600080fd5b505af1158015611676573d6000803e3d6000fd5b5050505050505050565b600554604051600162098b5360e21b031981526000916001600160a01b03169063ffd9d2b4906116b890339089908990600401611b91565b6020604051808303816000875af11580156116d7573d6000803e3d6000fd5b505050506040513d601f19601f820116820180604052508101906116fb9190611bb5565b507f5d9077e26c239c17c043cbb6da74001b6c7442aad9c1d795a4efaf1d17b5c461838360405161172d929190611bf0565b60405180910390a1506001949350505050565b600554604051636eb1769f60e11b81526001600160a01b0384811660048301528381166024830152600092169063dd62ed3e90604401602060405180830381865afa158015611793573d6000803e3d6000fd5b505050506040513d601f19601f8201168201806040525081019061067f9190611bd7565b600081848411156117db5760405162461bcd60e51b81526004016108109190611916565b506000610a0b8486611dcb565b61155280611de383390190565b80356001600160a01b038116811461180c57600080fd5b919050565b60008083601f84011261182357600080fd5b50813567ffffffffffffffff81111561183b57600080fd5b60208301915083602082850101111561185357600080fd5b9250929050565b60008060008060006080868803121561187257600080fd5b61187b866117f5565b9450611889602087016117f5565b935060408601359250606086013567ffffffffffffffff8111156118ac57600080fd5b6118b888828901611811565b969995985093965092949392505050565b6000815180845260005b818110156118ef576020818501810151868301820152016118d3565b81811115611901576000602083870101525b50601f01601f19169290920160200192915050565b60208152600061067f60208301846118c9565b6000806040838503121561193c57600080fd5b611945836117f5565b946020939093013593505050565b60008060006060848603121561196857600080fd5b611971846117f5565b925061197f602085016117f5565b9150604084013590509250925092565b600080600080600060a086880312156119a757600080fd5b6119b0866117f5565b94506119be602087016117f5565b94979496505050506040830135926060810135926080909101359150565b6000806000606084860312156119f157600080fd5b6119fa846117f5565b95602085013595506040909401359392505050565b60008060408385031215611a2257600080fd5b50508035926020909101359150565b600060208284031215611a4357600080fd5b61067f826117f5565b600080600060408486031215611a6157600080fd5b83359250602084013567ffffffffffffffff80821115611a8057600080fd5b818601915086601f830112611a9457600080fd5b813581811115611aa357600080fd5b8760208260051b8501011115611ab857600080fd5b6020830194508093505050509250925092565b60008060008060808587031215611ae157600080fd5b611aea856117f5565b966020860135965060408601359560600135945092505050565b60008060008060608587031215611b1a57600080fd5b611b23856117f5565b935060208501359250604085013567ffffffffffffffff811115611b4657600080fd5b611b5287828801611811565b95989497509550505050565b60008060408385031215611b7157600080fd5b611b7a836117f5565b9150611b88602084016117f5565b90509250929050565b6001600160a01b039384168152919092166020820152604081019190915260600190565b600060208284031215611bc757600080fd5b8151801515811461067f57600080fd5b600060208284031215611be957600080fd5b5051919050565b60208152816020820152818360408301376000818301604090810191909152601f909201601f19160101919050565b600181811c90821680611c3357607f821691505b602082108103611c5357634e487b7160e01b600052602260045260246000fd5b50919050565b60208082526018908201527f4652433735393a20736c696365206e6f74206578697374730000000000000000604082015260600190565b6254465f60e81b8152600060036000845481600182811c915080831680611cb857607f831692505b60208084108203611cd757634e487b7160e01b86526022600452602486fd5b818015611ceb5760018114611d0057611d31565b60ff1986168a890152848a0188019650611d31565b60008b81526020902060005b86811015611d275781548c82018b0152908501908301611d0c565b505087858b010196505b50949998505050505050505050565b60a081526000611d5360a08301886118c9565b8281036020840152611d6581886118c9565b60ff9690961660408401525050606081019290925260809091015292915050565b634e487b7160e01b600052603260045260246000fd5b634e487b7160e01b600052601160045260246000fd5b600060018201611dc457611dc4611d9c565b5060010190565b600082821015611ddd57611ddd611d9c565b50039056fe608060405234801561001057600080fd5b50611532806100206000396000f3fe608060405234801561001057600080fd5b50600436106101005760003560e01c806370a0823111610097578063a9059cbb11610066578063a9059cbb14610224578063dd62ed3e14610237578063e03e7d9614610270578063ffd9d2b41461028357600080fd5b806370a08231146101d857806378e979251461020157806395d89b41146102095780639dc29fac1461021157600080fd5b8063313ce567116100d3578063313ce5671461016e5780633197cbb61461018357806340c10f191461019557806360f96a8f146101a857600080fd5b806306fdde0314610105578063095ea7b3146101235780631f7fd4301461014657806323b872dd1461015b575b600080fd5b61010d610296565b60405161011a9190611137565b60405180910390f35b6101366101313660046111a8565b610328565b604051901515815260200161011a565b610159610154366004611275565b61033e565b005b610136610169366004611303565b6103fd565b60045460405160ff909116815260200161011a565b6006545b60405190815260200161011a565b6101596101a33660046111a8565b61053f565b6007546101c09061010090046001600160a01b031681565b6040516001600160a01b03909116815260200161011a565b6101876101e636600461133f565b6001600160a01b031660009081526020819052604090205490565b600554610187565b61010d610585565b61015961021f3660046111a8565b610594565b6101366102323660046111a8565b61064f565b61018761024536600461135a565b6001600160a01b03918216600090815260016020908152604080832093909416825291909152205490565b61013661027e366004611303565b6106f4565b610136610291366004611303565b61073a565b6060600280546102a59061138d565b80601f01602080910402602001604051908101604052809291908181526020018280546102d19061138d565b801561031e5780601f106102f35761010080835404028352916020019161031e565b820191906000526020600020905b81548152906001019060200180831161030157829003601f168201915b5050505050905090565b6000610335338484610780565b50600192915050565b60075460ff16156103965760405162461bcd60e51b815260206004820152601f60248201527f536c6963653a20616c7265616479206265656e20696e697469616c697a65640060448201526064015b60405180910390fd5b84516103a990600290602088019061109e565b5083516103bd90600390602087019061109e565b506004805460ff9490941660ff19948516179055600591909155600655600780546001600160a81b03191661010033029092169190911760011790555050565b6000600760019054906101000a90046001600160a01b03166001600160a01b03166325929a5e6040518163ffffffff1660e01b8152600401602060405180830381865afa158015610452573d6000803e3d6000fd5b505050506040513d601f19601f8201168201806040525081019061047691906113c7565b15156001146104975760405162461bcd60e51b815260040161038d906113e9565b6104a2848484610939565b6105358433610530856040518060400160405280601981526020017f536c6963653a20746f6f206c65737320616c6c6f77616e636500000000000000815250600160008b6001600160a01b03166001600160a01b03168152602001908152602001600020600061050f3390565b6001600160a01b031681526020810191909152604001600020549190610cca565b610780565b5060019392505050565b60075461010090046001600160a01b0316336001600160a01b0316146105775760405162461bcd60e51b815260040161038d9061142a565b6105818282610d04565b5050565b6060600380546102a59061138d565b60075461010090046001600160a01b0316336001600160a01b0316146105cc5760405162461bcd60e51b815260040161038d9061142a565b806105ec836001600160a01b031660009081526020819052604090205490565b10156106455760405162461bcd60e51b815260206004820152602260248201527f536c6963653a206275726e20616d6f756e7420657863656564732062616c616e604482015261636560f01b606482015260840161038d565b6105818282610f1b565b6000600760019054906101000a90046001600160a01b03166001600160a01b03166325929a5e6040518163ffffffff1660e01b8152600401602060405180830381865afa1580156106a4573d6000803e3d6000fd5b505050506040513d601f19601f820116820180604052508101906106c891906113c7565b15156001146106e95760405162461bcd60e51b815260040161038d906113e9565b610335338484610939565b60075460009061010090046001600160a01b0316336001600160a01b03161461072f5760405162461bcd60e51b815260040161038d9061142a565b610535848484610780565b60075460009061010090046001600160a01b0316336001600160a01b0316146107755760405162461bcd60e51b815260040161038d9061142a565b610535848484610939565b600760019054906101000a90046001600160a01b03166001600160a01b0316635c975abb6040518163ffffffff1660e01b8152600401602060405180830381865afa1580156107d3573d6000803e3d6000fd5b505050506040513d601f19601f820116820180604052508101906107f791906113c7565b156108145760405162461bcd60e51b815260040161038d90611461565b6001600160a01b0383166108765760405162461bcd60e51b8152602060048201526024808201527f536c6963653a20617070726f76652066726f6d20746865207a65726f206164646044820152637265737360e01b606482015260840161038d565b6001600160a01b0382166108d75760405162461bcd60e51b815260206004820152602260248201527f536c6963653a20617070726f766520746f20746865207a65726f206164647265604482015261737360f01b606482015260840161038d565b6001600160a01b0383811660008181526001602090815260408083209487168084529482529182902085905590518481527f8c5be1e5ebec7d5bd14f71427d1e84f3dd0314c0f7b2291e5b200ac8c7c3b92591015b60405180910390a3505050565b600760019054906101000a90046001600160a01b03166001600160a01b0316635c975abb6040518163ffffffff1660e01b8152600401602060405180830381865afa15801561098c573d6000803e3d6000fd5b505050506040513d601f19601f820116820180604052508101906109b091906113c7565b156109cd5760405162461bcd60e51b815260040161038d90611461565b60075460405163e596219560e01b81526001600160a01b0385811660048301526101009092049091169063e596219590602401602060405180830381865afa158015610a1d573d6000803e3d6000fd5b505050506040513d601f19601f82011682018060405250810190610a4191906113c7565b15610a865760405162461bcd60e51b815260206004820152601560248201527414db1a58d94e881cd95b99195c88189b1bd8dad959605a1b604482015260640161038d565b60075460405163e596219560e01b81526001600160a01b0384811660048301526101009092049091169063e596219590602401602060405180830381865afa158015610ad6573d6000803e3d6000fd5b505050506040513d601f19601f82011682018060405250810190610afa91906113c7565b15610b475760405162461bcd60e51b815260206004820152601860248201527f536c6963653a20726563697069656e7420626c6f636b65640000000000000000604482015260640161038d565b6001600160a01b038316610bab5760405162461bcd60e51b815260206004820152602560248201527f536c6963653a207472616e736665722066726f6d20746865207a65726f206164604482015264647265737360d81b606482015260840161038d565b6001600160a01b038216610c0d5760405162461bcd60e51b815260206004820152602360248201527f536c6963653a207472616e7366657220746f20746865207a65726f206164647260448201526265737360e81b606482015260840161038d565b610c4a816040518060600160405280602681526020016114d7602691396001600160a01b0386166000908152602081905260409020549190610cca565b6001600160a01b038085166000908152602081905260408082209390935590841681522054610c799082611038565b6001600160a01b038381166000818152602081815260409182902094909455518481529092918616917fddf252ad1be2c89b69c2b068fc378daa952ba7f163c4a11628f55a4df523b3ef910161092c565b60008184841115610cee5760405162461bcd60e51b815260040161038d9190611137565b506000610cfb84866114a7565b95945050505050565b600760019054906101000a90046001600160a01b03166001600160a01b0316635c975abb6040518163ffffffff1660e01b8152600401602060405180830381865afa158015610d57573d6000803e3d6000fd5b505050506040513d601f19601f82011682018060405250810190610d7b91906113c7565b15610d985760405162461bcd60e51b815260040161038d90611461565b60075460405163e596219560e01b81526001600160a01b0384811660048301526101009092049091169063e596219590602401602060405180830381865afa158015610de8573d6000803e3d6000fd5b505050506040513d601f19601f82011682018060405250810190610e0c91906113c7565b15610e525760405162461bcd60e51b815260206004820152601660248201527514db1a58d94e881858d8dbdd5b9d08189b1bd8dad95960521b604482015260640161038d565b60008111610ea25760405162461bcd60e51b815260206004820152601d60248201527f536c6963653a20696e76616c696420616d6f756e7420746f206d696e74000000604482015260640161038d565b6001600160a01b038216600090815260208190526040902054610ec59082611038565b6001600160a01b038316600081815260208181526040808320949094559251848152919290917fddf252ad1be2c89b69c2b068fc378daa952ba7f163c4a11628f55a4df523b3ef91015b60405180910390a35050565b600760019054906101000a90046001600160a01b03166001600160a01b0316635c975abb6040518163ffffffff1660e01b8152600401602060405180830381865afa158015610f6e573d6000803e3d6000fd5b505050506040513d601f19601f82011682018060405250810190610f9291906113c7565b15610faf5760405162461bcd60e51b815260040161038d90611461565b610fec816040518060600160405280602681526020016114d7602691396001600160a01b0385166000908152602081905260409020549190610cca565b6001600160a01b03831660008181526020818152604080832094909455925184815290927fddf252ad1be2c89b69c2b068fc378daa952ba7f163c4a11628f55a4df523b3ef9101610f0f565b60008061104583856114be565b9050838110156110975760405162461bcd60e51b815260206004820152601b60248201527f536166654d6174683a206164646974696f6e206f766572666c6f770000000000604482015260640161038d565b9392505050565b8280546110aa9061138d565b90600052602060002090601f0160209004810192826110cc5760008555611112565b82601f106110e557805160ff1916838001178555611112565b82800160010185558215611112579182015b828111156111125782518255916020019190600101906110f7565b5061111e929150611122565b5090565b5b8082111561111e5760008155600101611123565b600060208083528351808285015260005b8181101561116457858101830151858201604001528201611148565b81811115611176576000604083870101525b50601f01601f1916929092016040019392505050565b80356001600160a01b03811681146111a357600080fd5b919050565b600080604083850312156111bb57600080fd5b6111c48361118c565b946020939093013593505050565b634e487b7160e01b600052604160045260246000fd5b600082601f8301126111f957600080fd5b813567ffffffffffffffff80821115611214576112146111d2565b604051601f8301601f19908116603f0116810190828211818310171561123c5761123c6111d2565b8160405283815286602085880101111561125557600080fd5b836020870160208301376000602085830101528094505050505092915050565b600080600080600060a0868803121561128d57600080fd5b853567ffffffffffffffff808211156112a557600080fd5b6112b189838a016111e8565b965060208801359150808211156112c757600080fd5b506112d4888289016111e8565b945050604086013560ff811681146112eb57600080fd5b94979396509394606081013594506080013592915050565b60008060006060848603121561131857600080fd5b6113218461118c565b925061132f6020850161118c565b9150604084013590509250925092565b60006020828403121561135157600080fd5b6110978261118c565b6000806040838503121561136d57600080fd5b6113768361118c565b91506113846020840161118c565b90509250929050565b600181811c908216806113a157607f821691505b6020821081036113c157634e487b7160e01b600052602260045260246000fd5b50919050565b6000602082840312156113d957600080fd5b8151801515811461109757600080fd5b60208082526021908201527f536c6963653a20736c696365207472616e73666572206e6f7420616c6c6f77656040820152601960fa1b606082015260800190565b6020808252601c908201527f536c6963653a2063616c6c6572206d75737420626520706172656e7400000000604082015260600190565b60208082526016908201527514db1a58d94e8818dbdb9d1c9858dd081c185d5cd95960521b604082015260600190565b634e487b7160e01b600052601160045260246000fd5b6000828210156114b9576114b9611491565b500390565b600082198211156114d1576114d1611491565b50019056fe536c6963653a207472616e7366657220616d6f756e7420657863656564732062616c616e6365a264697066735822122006d1359c915516610684bf2ea5e4f0d50437694a1399fda1b02f77eb316f537264736f6c634300080d0033a264697066735822122007622a113cacbdbd8b0694ccd46b0049b89aa2fc0d8700f7650d65f80484891264736f6c634300080d0033608060405234801561001057600080fd5b50611532806100206000396000f3fe608060405234801561001057600080fd5b50600436106101005760003560e01c806370a0823111610097578063a9059cbb11610066578063a9059cbb14610224578063dd62ed3e14610237578063e03e7d9614610270578063ffd9d2b41461028357600080fd5b806370a08231146101d857806378e979251461020157806395d89b41146102095780639dc29fac1461021157600080fd5b8063313ce567116100d3578063313ce5671461016e5780633197cbb61461018357806340c10f191461019557806360f96a8f146101a857600080fd5b806306fdde0314610105578063095ea7b3146101235780631f7fd4301461014657806323b872dd1461015b575b600080fd5b61010d610296565b60405161011a9190611137565b60405180910390f35b6101366101313660046111a8565b610328565b604051901515815260200161011a565b610159610154366004611275565b61033e565b005b610136610169366004611303565b6103fd565b60045460405160ff909116815260200161011a565b6006545b60405190815260200161011a565b6101596101a33660046111a8565b61053f565b6007546101c09061010090046001600160a01b031681565b6040516001600160a01b03909116815260200161011a565b6101876101e636600461133f565b6001600160a01b031660009081526020819052604090205490565b600554610187565b61010d610585565b61015961021f3660046111a8565b610594565b6101366102323660046111a8565b61064f565b61018761024536600461135a565b6001600160a01b03918216600090815260016020908152604080832093909416825291909152205490565b61013661027e366004611303565b6106f4565b610136610291366004611303565b61073a565b6060600280546102a59061138d565b80601f01602080910402602001604051908101604052809291908181526020018280546102d19061138d565b801561031e5780601f106102f35761010080835404028352916020019161031e565b820191906000526020600020905b81548152906001019060200180831161030157829003601f168201915b5050505050905090565b6000610335338484610780565b50600192915050565b60075460ff16156103965760405162461bcd60e51b815260206004820152601f60248201527f536c6963653a20616c7265616479206265656e20696e697469616c697a65640060448201526064015b60405180910390fd5b84516103a990600290602088019061109e565b5083516103bd90600390602087019061109e565b506004805460ff9490941660ff19948516179055600591909155600655600780546001600160a81b03191661010033029092169190911760011790555050565b6000600760019054906101000a90046001600160a01b03166001600160a01b03166325929a5e6040518163ffffffff1660e01b8152600401602060405180830381865afa158015610452573d6000803e3d6000fd5b505050506040513d601f19601f8201168201806040525081019061047691906113c7565b15156001146104975760405162461bcd60e51b815260040161038d906113e9565b6104a2848484610939565b6105358433610530856040518060400160405280601981526020017f536c6963653a20746f6f206c65737320616c6c6f77616e636500000000000000815250600160008b6001600160a01b03166001600160a01b03168152602001908152602001600020600061050f3390565b6001600160a01b031681526020810191909152604001600020549190610cca565b610780565b5060019392505050565b60075461010090046001600160a01b0316336001600160a01b0316146105775760405162461bcd60e51b815260040161038d9061142a565b6105818282610d04565b5050565b6060600380546102a59061138d565b60075461010090046001600160a01b0316336001600160a01b0316146105cc5760405162461bcd60e51b815260040161038d9061142a565b806105ec836001600160a01b031660009081526020819052604090205490565b10156106455760405162461bcd60e51b815260206004820152602260248201527f536c6963653a206275726e20616d6f756e7420657863656564732062616c616e604482015261636560f01b606482015260840161038d565b6105818282610f1b565b6000600760019054906101000a90046001600160a01b03166001600160a01b03166325929a5e6040518163ffffffff1660e01b8152600401602060405180830381865afa1580156106a4573d6000803e3d6000fd5b505050506040513d601f19601f820116820180604052508101906106c891906113c7565b15156001146106e95760405162461bcd60e51b815260040161038d906113e9565b610335338484610939565b60075460009061010090046001600160a01b0316336001600160a01b03161461072f5760405162461bcd60e51b815260040161038d9061142a565b610535848484610780565b60075460009061010090046001600160a01b0316336001600160a01b0316146107755760405162461bcd60e51b815260040161038d9061142a565b610535848484610939565b600760019054906101000a90046001600160a01b03166001600160a01b0316635c975abb6040518163ffffffff1660e01b8152600401602060405180830381865afa1580156107d3573d6000803e3d6000fd5b505050506040513d601f19601f820116820180604052508101906107f791906113c7565b156108145760405162461bcd60e51b815260040161038d90611461565b6001600160a01b0383166108765760405162461bcd60e51b8152602060048201526024808201527f536c6963653a20617070726f76652066726f6d20746865207a65726f206164646044820152637265737360e01b606482015260840161038d565b6001600160a01b0382166108d75760405162461bcd60e51b815260206004820152602260248201527f536c6963653a20617070726f766520746f20746865207a65726f206164647265604482015261737360f01b606482015260840161038d565b6001600160a01b0383811660008181526001602090815260408083209487168084529482529182902085905590518481527f8c5be1e5ebec7d5bd14f71427d1e84f3dd0314c0f7b2291e5b200ac8c7c3b92591015b60405180910390a3505050565b600760019054906101000a90046001600160a01b03166001600160a01b0316635c975abb6040518163ffffffff1660e01b8152600401602060405180830381865afa15801561098c573d6000803e3d6000fd5b505050506040513d601f19601f820116820180604052508101906109b091906113c7565b156109cd5760405162461bcd60e51b815260040161038d90611461565b60075460405163e596219560e01b81526001600160a01b0385811660048301526101009092049091169063e596219590602401602060405180830381865afa158015610a1d573d6000803e3d6000fd5b505050506040513d601f19601f82011682018060405250810190610a4191906113c7565b15610a865760405162461bcd60e51b815260206004820152601560248201527414db1a58d94e881cd95b99195c88189b1bd8dad959605a1b604482015260640161038d565b60075460405163e596219560e01b81526001600160a01b0384811660048301526101009092049091169063e596219590602401602060405180830381865afa158015610ad6573d6000803e3d6000fd5b505050506040513d601f19601f82011682018060405250810190610afa91906113c7565b15610b475760405162461bcd60e51b815260206004820152601860248201527f536c6963653a20726563697069656e7420626c6f636b65640000000000000000604482015260640161038d565b6001600160a01b038316610bab5760405162461bcd60e51b815260206004820152602560248201527f536c6963653a207472616e736665722066726f6d20746865207a65726f206164604482015264647265737360d81b606482015260840161038d565b6001600160a01b038216610c0d5760405162461bcd60e51b815260206004820152602360248201527f536c6963653a207472616e7366657220746f20746865207a65726f206164647260448201526265737360e81b606482015260840161038d565b610c4a816040518060600160405280602681526020016114d7602691396001600160a01b0386166000908152602081905260409020549190610cca565b6001600160a01b038085166000908152602081905260408082209390935590841681522054610c799082611038565b6001600160a01b038381166000818152602081815260409182902094909455518481529092918616917fddf252ad1be2c89b69c2b068fc378daa952ba7f163c4a11628f55a4df523b3ef910161092c565b60008184841115610cee5760405162461bcd60e51b815260040161038d9190611137565b506000610cfb84866114a7565b95945050505050565b600760019054906101000a90046001600160a01b03166001600160a01b0316635c975abb6040518163ffffffff1660e01b8152600401602060405180830381865afa158015610d57573d6000803e3d6000fd5b505050506040513d601f19601f82011682018060405250810190610d7b91906113c7565b15610d985760405162461bcd60e51b815260040161038d90611461565b60075460405163e596219560e01b81526001600160a01b0384811660048301526101009092049091169063e596219590602401602060405180830381865afa158015610de8573d6000803e3d6000fd5b505050506040513d601f19601f82011682018060405250810190610e0c91906113c7565b15610e525760405162461bcd60e51b815260206004820152601660248201527514db1a58d94e881858d8dbdd5b9d08189b1bd8dad95960521b604482015260640161038d565b60008111610ea25760405162461bcd60e51b815260206004820152601d60248201527f536c6963653a20696e76616c696420616d6f756e7420746f206d696e74000000604482015260640161038d565b6001600160a01b038216600090815260208190526040902054610ec59082611038565b6001600160a01b038316600081815260208181526040808320949094559251848152919290917fddf252ad1be2c89b69c2b068fc378daa952ba7f163c4a11628f55a4df523b3ef91015b60405180910390a35050565b600760019054906101000a90046001600160a01b03166001600160a01b0316635c975abb6040518163ffffffff1660e01b8152600401602060405180830381865afa158015610f6e573d6000803e3d6000fd5b505050506040513d601f19601f82011682018060405250810190610f9291906113c7565b15610faf5760405162461bcd60e51b815260040161038d90611461565b610fec816040518060600160405280602681526020016114d7602691396001600160a01b0385166000908152602081905260409020549190610cca565b6001600160a01b03831660008181526020818152604080832094909455925184815290927fddf252ad1be2c89b69c2b068fc378daa952ba7f163c4a11628f55a4df523b3ef9101610f0f565b60008061104583856114be565b9050838110156110975760405162461bcd60e51b815260206004820152601b60248201527f536166654d6174683a206164646974696f6e206f766572666c6f770000000000604482015260640161038d565b9392505050565b8280546110aa9061138d565b90600052602060002090601f0160209004810192826110cc5760008555611112565b82601f106110e557805160ff1916838001178555611112565b82800160010185558215611112579182015b828111156111125782518255916020019190600101906110f7565b5061111e929150611122565b5090565b5b8082111561111e5760008155600101611123565b600060208083528351808285015260005b8181101561116457858101830151858201604001528201611148565b81811115611176576000604083870101525b50601f01601f1916929092016040019392505050565b80356001600160a01b03811681146111a357600080fd5b919050565b600080604083850312156111bb57600080fd5b6111c48361118c565b946020939093013593505050565b634e487b7160e01b600052604160045260246000fd5b600082601f8301126111f957600080fd5b813567ffffffffffffffff80821115611214576112146111d2565b604051601f8301601f19908116603f0116810190828211818310171561123c5761123c6111d2565b8160405283815286602085880101111561125557600080fd5b836020870160208301376000602085830101528094505050505092915050565b600080600080600060a0868803121561128d57600080fd5b853567ffffffffffffffff808211156112a557600080fd5b6112b189838a016111e8565b965060208801359150808211156112c757600080fd5b506112d4888289016111e8565b945050604086013560ff811681146112eb57600080fd5b94979396509394606081013594506080013592915050565b60008060006060848603121561131857600080fd5b6113218461118c565b925061132f6020850161118c565b9150604084013590509250925092565b60006020828403121561135157600080fd5b6110978261118c565b6000806040838503121561136d57600080fd5b6113768361118c565b91506113846020840161118c565b90509250929050565b600181811c908216806113a157607f821691505b6020821081036113c157634e487b7160e01b600052602260045260246000fd5b50919050565b6000602082840312156113d957600080fd5b8151801515811461109757600080fd5b60208082526021908201527f536c6963653a20736c696365207472616e73666572206e6f7420616c6c6f77656040820152601960fa1b606082015260800190565b6020808252601c908201527f536c6963653a2063616c6c6572206d75737420626520706172656e7400000000604082015260600190565b60208082526016908201527514db1a58d94e8818dbdb9d1c9858dd081c185d5cd95960521b604082015260600190565b634e487b7160e01b600052601160045260246000fd5b6000828210156114b9576114b9611491565b500390565b600082198211156114d1576114d1611491565b50019056fe536c6963653a207472616e7366657220616d6f756e7420657863656564732062616c616e6365a264697066735822122006d1359c915516610684bf2ea5e4f0d50437694a1399fda1b02f77eb316f537264736f6c634300080d0033",
    "linkReferences": {}
  }
}