{
  "abi": [
    {
      "inputs": [],
      "stateMutability": "nonpayable",
      "type": "constructor"
    },
    {
      "anonymous": false,
      "inputs": [
        {
          "indexed": true,
          "internalType": "address",
          "name": "owner",
          "type": "address"
        },
        {
          "indexed": true,
          "internalType": "address",
          "name": "spender",
          "type": "address"
        },
        {
          "indexed": false,
          "internalType": "uint256",
          "name": "value",
          "type": "uint256"
        }
      ],
      "name": "Approval",
      "type": "event"
    },
    {
      "anonymous": false,
      "inputs": [
        {
          "indexed": true,
          "internalType": "address",
          "name": "sender",
          "type": "address"
        },
        {
          "indexed": true,
          "internalType": "address",
          "name": "recipient",
          "type": "address"
        },
        {
          "indexed": false,
          "internalType": "uint256",
          "name": "value",
          "type": "uint256"
        }
      ],
      "name": "Transfer",
      "type": "event"
    },
    {
      "inputs": [
        {
          "internalType": "address",
          "name": "owner",
          "type": "address"
        },
        {
          "internalType": "address",
          "name": "spender",
          "type": "address"
        }
      ],
      "name": "allowance",
      "outputs": [
        {
          "internalType": "uint256",
          "name": "",
          "type": "uint256"
        }
      ],
      "stateMutability": "view",
      "type": "function"
    },
    {
      "inputs": [
        {
          "internalType": "address",
          "name": "spender",
          "type": "address"
        },
        {
          "internalType": "uint256",
          "name": "amount",
          "type": "uint256"
        }
      ],
      "name": "approve",
      "outputs": [
        {
          "internalType": "bool",
          "name": "",
          "type": "bool"
        }
      ],
      "stateMutability": "nonpayable",
      "type": "function"
    },
    {
      "inputs": [
        {
          "internalType": "address",
          "name": "owner",
          "type": "address"
        },
        {
          "internalType": "address",
          "name": "spender",
          "type": "address"
        },
        {
          "internalType": "uint256",
          "name": "amount",
          "type": "uint256"
        }
      ],
      "name": "approveByParent",
      "outputs": [
        {
          "internalType": "bool",
          "name": "",
          "type": "bool"
        }
      ],
      "stateMutability": "nonpayable",
      "type": "function"
    },
    {
      "inputs": [
        {
          "internalType": "address",
          "name": "account",
          "type": "address"
        }
      ],
      "name": "balanceOf",
      "outputs": [
        {
          "internalType": "uint256",
          "name": "",
          "type": "uint256"
        }
      ],
      "stateMutability": "view",
      "type": "function"
    },
    {
      "inputs": [
        {
          "internalType": "address",
          "name": "account",
          "type": "address"
        },
        {
          "internalType": "uint256",
          "name": "amount",
          "type": "uint256"
        }
      ],
      "name": "burn",
      "outputs": [],
      "stateMutability": "nonpayable",
      "type": "function"
    },
    {
      "inputs": [],
      "name": "decimals",
      "outputs": [
        {
          "internalType": "uint8",
          "name": "",
          "type": "uint8"
        }
      ],
      "stateMutability": "view",
      "type": "function"
    },
    {
      "inputs": [],
      "name": "endTime",
      "outputs": [
        {
          "internalType": "uint256",
          "name": "",
          "type": "uint256"
        }
      ],
      "stateMutability": "view",
      "type": "function"
    },
    {
      "inputs": [
        {
          "internalType": "string",
          "name": "name_",
          "type": "string"
        },
        {
          "internalType": "string",
          "name": "symbol_",
          "type": "string"
        },
        {
          "internalType": "uint8",
          "name": "decimals_",
          "type": "uint8"
        },
        {
          "internalType": "uint256",
          "name": "start_",
          "type": "uint256"
        },
        {
          "internalType": "uint256",
          "name": "end_",
          "type": "uint256"
        }
      ],
      "name": "initialize",
      "outputs": [],
      "stateMutability": "nonpayable",
      "type": "function"
    },
    {
      "inputs": [
        {
          "internalType": "address",
          "name": "account",
          "type": "address"
        },
        {
          "internalType": "uint256",
          "name": "amount",
          "type": "uint256"
        }
      ],
      "name": "mint",
      "outputs": [],
      "stateMutability": "nonpayable",
      "type": "function"
    },
    {
      "inputs": [],
      "name": "name",
      "outputs": [
        {
          "internalType": "string",
          "name": "",
          "type": "string"
        }
      ],
      "stateMutability": "view",
      "type": "function"
    },
    {
      "inputs": [],
      "name": "parent",
      "outputs": [
        {
          "internalType": "address",
          "name": "",
          "type": "address"
        }
      ],
      "stateMutability": "view",
      "type": "function"
    },
    {
      "inputs": [],
      "name": "startTime",
      "outputs": [
        {
          "internalType": "uint256",
          "name": "",
          "type": "uint256"
        }
      ],
      "stateMutability": "view",
      "type": "function"
    },
    {
      "inputs": [],
      "name": "symbol",
      "outputs": [
        {
          "internalType": "string",
          "name": "",
          "type": "string"
        }
      ],
      "stateMutability": "view",
      "type": "function"
    },
    {
      "inputs": [
        {
          "internalType": "address",
          "name": "recipient",
          "type": "address"
        },
        {
          "internalType": "uint256",
          "name": "amount",
          "type": "uint256"
        }
      ],
      "name": "transfer",
      "outputs": [
        {
          "internalType": "bool",
          "name": "",
          "type": "bool"
        }
      ],
      "stateMutability": "nonpayable",
      "type": "function"
    },
    {
      "inputs": [
        {
          "internalType": "address",
          "name": "sender",
          "type": "address"
        },
        {
          "internalType": "address",
          "name": "recipipent",
          "type": "address"
        },
        {
          "internalType": "uint256",
          "name": "amount",
          "type": "uint256"
        }
      ],
      "name": "transferByParent",
      "outputs": [
        {
          "internalType": "bool",
          "name": "",
          "type": "bool"
        }
      ],
      "stateMutability": "nonpayable",
      "type": "function"
    },
    {
      "inputs": [
        {
          "internalType": "address",
          "name": "sender",
          "type": "address"
        },
        {
          "internalType": "address",
          "name": "recipient",
          "type": "address"
        },
        {
          "internalType": "uint256",
          "name": "amount",
          "type": "uint256"
        }
      ],
      "name": "transferFrom",
      "outputs": [
        {
          "internalType": "bool",
          "name": "",
          "type": "bool"
        }
      ],
      "stateMutability": "nonpayable",
      "type": "function"
    }
  ],
  "bytecode": {
    "object": "0x608060405234801561001057600080fd5b50611532806100206000396000f3fe608060405234801561001057600080fd5b50600436106101005760003560e01c806370a0823111610097578063a9059cbb11610066578063a9059cbb14610224578063dd62ed3e14610237578063e03e7d9614610270578063ffd9d2b41461028357600080fd5b806370a08231146101d857806378e979251461020157806395d89b41146102095780639dc29fac1461021157600080fd5b8063313ce567116100d3578063313ce5671461016e5780633197cbb61461018357806340c10f191461019557806360f96a8f146101a857600080fd5b806306fdde0314610105578063095ea7b3146101235780631f7fd4301461014657806323b872dd1461015b575b600080fd5b61010d610296565b60405161011a9190611137565b60405180910390f35b6101366101313660046111a8565b610328565b604051901515815260200161011a565b610159610154366004611275565b61033e565b005b610136610169366004611303565b6103fd565b60045460405160ff909116815260200161011a565b6006545b60405190815260200161011a565b6101596101a33660046111a8565b61053f565b6007546101c09061010090046001600160a01b031681565b6040516001600160a01b03909116815260200161011a565b6101876101e636600461133f565b6001600160a01b031660009081526020819052604090205490565b600554610187565b61010d610585565b61015961021f3660046111a8565b610594565b6101366102323660046111a8565b61064f565b61018761024536600461135a565b6001600160a01b03918216600090815260016020908152604080832093909416825291909152205490565b61013661027e366004611303565b6106f4565b610136610291366004611303565b61073a565b6060600280546102a59061138d565b80601f01602080910402602001604051908101604052809291908181526020018280546102d19061138d565b801561031e5780601f106102f35761010080835404028352916020019161031e565b820191906000526020600020905b81548152906001019060200180831161030157829003601f168201915b5050505050905090565b6000610335338484610780565b50600192915050565b60075460ff16156103965760405162461bcd60e51b815260206004820152601f60248201527f536c6963653a20616c7265616479206265656e20696e697469616c697a65640060448201526064015b60405180910390fd5b84516103a990600290602088019061109e565b5083516103bd90600390602087019061109e565b506004805460ff9490941660ff19948516179055600591909155600655600780546001600160a81b03191661010033029092169190911760011790555050565b6000600760019054906101000a90046001600160a01b03166001600160a01b03166325929a5e6040518163ffffffff1660e01b8152600401602060405180830381865afa158015610452573d6000803e3d6000fd5b505050506040513d601f19601f8201168201806040525081019061047691906113c7565b15156001146104975760405162461bcd60e51b815260040161038d906113e9565b6104a2848484610939565b6105358433610530856040518060400160405280601981526020017f536c6963653a20746f6f206c65737320616c6c6f77616e636500000000000000815250600160008b6001600160a01b03166001600160a01b03168152602001908152602001600020600061050f3390565b6001600160a01b031681526020810191909152604001600020549190610cca565b610780565b5060019392505050565b60075461010090046001600160a01b0316336001600160a01b0316146105775760405162461bcd60e51b815260040161038d9061142a565b6105818282610d04565b5050565b6060600380546102a59061138d565b60075461010090046001600160a01b0316336001600160a01b0316146105cc5760405162461bcd60e51b815260040161038d9061142a565b806105ec836001600160a01b031660009081526020819052604090205490565b10156106455760405162461bcd60e51b815260206004820152602260248201527f536c6963653a206275726e20616d6f756e7420657863656564732062616c616e604482015261636560f01b606482015260840161038d565b6105818282610f1b565b6000600760019054906101000a90046001600160a01b03166001600160a01b03166325929a5e6040518163ffffffff1660e01b8152600401602060405180830381865afa1580156106a4573d6000803e3d6000fd5b505050506040513d601f19601f820116820180604052508101906106c891906113c7565b15156001146106e95760405162461bcd60e51b815260040161038d906113e9565b610335338484610939565b60075460009061010090046001600160a01b0316336001600160a01b03161461072f5760405162461bcd60e51b815260040161038d9061142a565b610535848484610780565b60075460009061010090046001600160a01b0316336001600160a01b0316146107755760405162461bcd60e51b815260040161038d9061142a565b610535848484610939565b600760019054906101000a90046001600160a01b03166001600160a01b0316635c975abb6040518163ffffffff1660e01b8152600401602060405180830381865afa1580156107d3573d6000803e3d6000fd5b505050506040513d601f19601f820116820180604052508101906107f791906113c7565b156108145760405162461bcd60e51b815260040161038d90611461565b6001600160a01b0383166108765760405162461bcd60e51b8152602060048201526024808201527f536c6963653a20617070726f76652066726f6d20746865207a65726f206164646044820152637265737360e01b606482015260840161038d565b6001600160a01b0382166108d75760405162461bcd60e51b815260206004820152602260248201527f536c6963653a20617070726f766520746f20746865207a65726f206164647265604482015261737360f01b606482015260840161038d565b6001600160a01b0383811660008181526001602090815260408083209487168084529482529182902085905590518481527f8c5be1e5ebec7d5bd14f71427d1e84f3dd0314c0f7b2291e5b200ac8c7c3b92591015b60405180910390a3505050565b600760019054906101000a90046001600160a01b03166001600160a01b0316635c975abb6040518163ffffffff1660e01b8152600401602060405180830381865afa15801561098c573d6000803e3d6000fd5b505050506040513d601f19601f820116820180604052508101906109b091906113c7565b156109cd5760405162461bcd60e51b815260040161038d90611461565b60075460405163e596219560e01b81526001600160a01b0385811660048301526101009092049091169063e596219590602401602060405180830381865afa158015610a1d573d6000803e3d6000fd5b505050506040513d601f19601f82011682018060405250810190610a4191906113c7565b15610a865760405162461bcd60e51b815260206004820152601560248201527414db1a58d94e881cd95b99195c88189b1bd8dad959605a1b604482015260640161038d565b60075460405163e596219560e01b81526001600160a01b0384811660048301526101009092049091169063e596219590602401602060405180830381865afa158015610ad6573d6000803e3d6000fd5b505050506040513d601f19601f82011682018060405250810190610afa91906113c7565b15610b475760405162461bcd60e51b815260206004820152601860248201527f536c6963653a20726563697069656e7420626c6f636b65640000000000000000604482015260640161038d565b6001600160a01b038316610bab5760405162461bcd60e51b815260206004820152602560248201527f536c6963653a207472616e736665722066726f6d20746865207a65726f206164604482015264647265737360d81b606482015260840161038d565b6001600160a01b038216610c0d5760405162461bcd60e51b815260206004820152602360248201527f536c6963653a207472616e7366657220746f20746865207a65726f206164647260448201526265737360e81b606482015260840161038d565b610c4a816040518060600160405280602681526020016114d7602691396001600160a01b0386166000908152602081905260409020549190610cca565b6001600160a01b038085166000908152602081905260408082209390935590841681522054610c799082611038565b6001600160a01b038381166000818152602081815260409182902094909455518481529092918616917fddf252ad1be2c89b69c2b068fc378daa952ba7f163c4a11628f55a4df523b3ef910161092c565b60008184841115610cee5760405162461bcd60e51b815260040161038d9190611137565b506000610cfb84866114a7565b95945050505050565b600760019054906101000a90046001600160a01b03166001600160a01b0316635c975abb6040518163ffffffff1660e01b8152600401602060405180830381865afa158015610d57573d6000803e3d6000fd5b505050506040513d601f19601f82011682018060405250810190610d7b91906113c7565b15610d985760405162461bcd60e51b815260040161038d90611461565b60075460405163e596219560e01b81526001600160a01b0384811660048301526101009092049091169063e596219590602401602060405180830381865afa158015610de8573d6000803e3d6000fd5b505050506040513d601f19601f82011682018060405250810190610e0c91906113c7565b15610e525760405162461bcd60e51b815260206004820152601660248201527514db1a58d94e881858d8dbdd5b9d08189b1bd8dad95960521b604482015260640161038d565b60008111610ea25760405162461bcd60e51b815260206004820152601d60248201527f536c6963653a20696e76616c696420616d6f756e7420746f206d696e74000000604482015260640161038d565b6001600160a01b038216600090815260208190526040902054610ec59082611038565b6001600160a01b038316600081815260208181526040808320949094559251848152919290917fddf252ad1be2c89b69c2b068fc378daa952ba7f163c4a11628f55a4df523b3ef91015b60405180910390a35050565b600760019054906101000a90046001600160a01b03166001600160a01b0316635c975abb6040518163ffffffff1660e01b8152600401602060405180830381865afa158015610f6e573d6000803e3d6000fd5b505050506040513d601f19601f82011682018060405250810190610f9291906113c7565b15610faf5760405162461bcd60e51b815260040161038d90611461565b610fec816040518060600160405280602681526020016114d7602691396001600160a01b0385166000908152602081905260409020549190610cca565b6001600160a01b03831660008181526020818152604080832094909455925184815290927fddf252ad1be2c89b69c2b068fc378daa952ba7f163c4a11628f55a4df523b3ef9101610f0f565b60008061104583856114be565b9050838110156110975760405162461bcd60e51b815260206004820152601b60248201527f536166654d6174683a206164646974696f6e206f766572666c6f770000000000604482015260640161038d565b9392505050565b8280546110aa9061138d565b90600052602060002090601f0160209004810192826110cc5760008555611112565b82601f106110e557805160ff1916838001178555611112565b82800160010185558215611112579182015b828111156111125782518255916020019190600101906110f7565b5061111e929150611122565b5090565b5b8082111561111e5760008155600101611123565b600060208083528351808285015260005b8181101561116457858101830151858201604001528201611148565b81811115611176576000604083870101525b50601f01601f1916929092016040019392505050565b80356001600160a01b03811681146111a357600080fd5b919050565b600080604083850312156111bb57600080fd5b6111c48361118c565b946020939093013593505050565b634e487b7160e01b600052604160045260246000fd5b600082601f8301126111f957600080fd5b813567ffffffffffffffff80821115611214576112146111d2565b604051601f8301601f19908116603f0116810190828211818310171561123c5761123c6111d2565b8160405283815286602085880101111561125557600080fd5b836020870160208301376000602085830101528094505050505092915050565b600080600080600060a0868803121561128d57600080fd5b853567ffffffffffffffff808211156112a557600080fd5b6112b189838a016111e8565b965060208801359150808211156112c757600080fd5b506112d4888289016111e8565b945050604086013560ff811681146112eb57600080fd5b94979396509394606081013594506080013592915050565b60008060006060848603121561131857600080fd5b6113218461118c565b925061132f6020850161118c565b9150604084013590509250925092565b60006020828403121561135157600080fd5b6110978261118c565b6000806040838503121561136d57600080fd5b6113768361118c565b91506113846020840161118c565b90509250929050565b600181811c908216806113a157607f821691505b6020821081036113c157634e487b7160e01b600052602260045260246000fd5b50919050565b6000602082840312156113d957600080fd5b8151801515811461109757600080fd5b60208082526021908201527f536c6963653a20736c696365207472616e73666572206e6f7420616c6c6f77656040820152601960fa1b606082015260800190565b6020808252601c908201527f536c6963653a2063616c6c6572206d75737420626520706172656e7400000000604082015260600190565b60208082526016908201527514db1a58d94e8818dbdb9d1c9858dd081c185d5cd95960521b604082015260600190565b634e487b7160e01b600052601160045260246000fd5b6000828210156114b9576114b9611491565b500390565b600082198211156114d1576114d1611491565b50019056fe536c6963653a207472616e7366657220616d6f756e7420657863656564732062616c616e6365a264697066735822122006d1359c915516610684bf2ea5e4f0d50437694a1399fda1b02f77eb316f537264736f6c634300080d0033",
    "linkReferences": {}
  }
}