{
  "abi": [
    {
      "inputs": [],
      "stateMutability": "nonpayable",
      "type": "constructor"
    },
    {
      "anonymous": false,
      "inputs": [
        {
          "indexed": true,
          "internalType": "address",
          "name": "owner",
          "type": "address"
        },
        {
          "indexed": true,
          "internalType": "address",
          "name": "spender",
          "type": "address"
        },
        {
          "indexed": false,
          "internalType": "uint256",
          "name": "value",
          "type": "uint256"
        }
      ],
      "name": "Approval",
      "type": "event"
    },
    {
      "anonymous": false,
      "inputs": [
        {
          "indexed": true,
          "internalType": "address",
          "name": "sender",
          "type": "address"
        },
        {
          "indexed": true,
          "internalType": "address",
          "name": "recipient",
          "type": "address"
        },
        {
          "indexed": false,
          "internalType": "uint256",
          "name": "value",
          "type": "uint256"
        }
      ],
      "name": "Transfer",
      "type": "event"
    },
    {
      "inputs": [
        {
          "internalType": "address",
          "name": "",
          "type": "address"
        },
        {
          "internalType": "address",
          "name": "",
          "type": "address"
        }
      ],
      "name": "allowance",
      "outputs": [
        {
          "internalType": "uint256",
          "name": "",
          "type": "uint256"
        }
      ],
      "stateMutability": "view",
      "type": "function"
    },
    {
      "inputs": [
        {
          "internalType": "address",
          "name": "spender",
          "type": "address"
        },
        {
          "internalType": "uint256",
          "name": "amount",
          "type": "uint256"
        }
      ],
      "name": "approve",
      "outputs": [
        {
          "internalType": "bool",
          "name": "",
          "type": "bool"
        }
      ],
      "stateMutability": "nonpayable",
      "type": "function"
    },
    {
      "inputs": [
        {
          "internalType": "address",
          "name": "owner",
          "type": "address"
        },
        {
          "internalType": "address",
          "name": "spender",
          "type": "address"
        },
        {
          "internalType": "uint256",
          "name": "amount",
          "type": "uint256"
        }
      ],
      "name": "approveByParent",
      "outputs": [
        {
          "internalType": "bool",
          "name": "",
          "type": "bool"
        }
      ],
      "stateMutability": "nonpayable",
      "type": "function"
    },
    {
      "inputs": [
        {
          "internalType": "address",
          "name": "",
          "type": "address"
        }
      ],
      "name": "balanceOf",
      "outputs": [
        {
          "internalType": "uint256",
          "name": "",
          "type": "uint256"
        }
      ],
      "stateMutability": "view",
      "type": "function"
    },
    {
      "inputs": [
        {
          "internalType": "address",
          "name": "account",
          "type": "address"
        },
        {
          "internalType": "uint256",
          "name": "amount",
          "type": "uint256"
        }
      ],
      "name": "burn",
      "outputs": [],
      "stateMutability": "nonpayable",
      "type": "function"
    },
    {
      "inputs": [],
      "name": "decimals",
      "outputs": [
        {
          "internalType": "uint8",
          "name": "",
          "type": "uint8"
        }
      ],
      "stateMutability": "view",
      "type": "function"
    },
    {
      "inputs": [],
      "name": "endTime",
      "outputs": [
        {
          "internalType": "uint256",
          "name": "",
          "type": "uint256"
        }
      ],
      "stateMutability": "view",
      "type": "function"
    },
    {
      "inputs": [
        {
          "internalType": "string",
          "name": "name_",
          "type": "string"
        },
        {
          "internalType": "string",
          "name": "symbol_",
          "type": "string"
        },
        {
          "internalType": "uint8",
          "name": "decimals_",
          "type": "uint8"
        },
        {
          "internalType": "uint256",
          "name": "start_",
          "type": "uint256"
        },
        {
          "internalType": "uint256",
          "name": "end_",
          "type": "uint256"
        }
      ],
      "name": "initialize",
      "outputs": [],
      "stateMutability": "nonpayable",
      "type": "function"
    },
    {
      "inputs": [
        {
          "internalType": "address",
          "name": "account",
          "type": "address"
        },
        {
          "internalType": "uint256",
          "name": "amount",
          "type": "uint256"
        }
      ],
      "name": "mint",
      "outputs": [],
      "stateMutability": "nonpayable",
      "type": "function"
    },
    {
      "inputs": [],
      "name": "name",
      "outputs": [
        {
          "internalType": "string",
          "name": "",
          "type": "string"
        }
      ],
      "stateMutability": "view",
      "type": "function"
    },
    {
      "inputs": [],
      "name": "parent",
      "outputs": [
        {
          "internalType": "address",
          "name": "",
          "type": "address"
        }
      ],
      "stateMutability": "view",
      "type": "function"
    },
    {
      "inputs": [],
      "name": "startTime",
      "outputs": [
        {
          "internalType": "uint256",
          "name": "",
          "type": "uint256"
        }
      ],
      "stateMutability": "view",
      "type": "function"
    },
    {
      "inputs": [],
      "name": "symbol",
      "outputs": [
        {
          "internalType": "string",
          "name": "",
          "type": "string"
        }
      ],
      "stateMutability": "view",
      "type": "function"
    },
    {
      "inputs": [
        {
          "internalType": "address",
          "name": "recipient",
          "type": "address"
        },
        {
          "internalType": "uint256",
          "name": "amount",
          "type": "uint256"
        }
      ],
      "name": "transfer",
      "outputs": [
        {
          "internalType": "bool",
          "name": "",
          "type": "bool"
        }
      ],
      "stateMutability": "nonpayable",
      "type": "function"
    },
    {
      "inputs": [
        {
          "internalType": "address",
          "name": "sender",
          "type": "address"
        },
        {
          "internalType": "address",
          "name": "recipipent",
          "type": "address"
        },
        {
          "internalType": "uint256",
          "name": "amount",
          "type": "uint256"
        }
      ],
      "name": "transferByParent",
      "outputs": [
        {
          "internalType": "bool",
          "name": "",
          "type": "bool"
        }
      ],
      "stateMutability": "nonpayable",
      "type": "function"
    },
    {
      "inputs": [
        {
          "internalType": "address",
          "name": "sender",
          "type": "address"
        },
        {
          "internalType": "address",
          "name": "recipient",
          "type": "address"
        },
        {
          "internalType": "uint256",
          "name": "amount",
          "type": "uint256"
        }
      ],
      "name": "transferFrom",
      "outputs": [
        {
          "internalType": "bool",
          "name": "",
          "type": "bool"
        }
      ],
      "stateMutability": "nonpayable",
      "type": "function"
    }
  ],
  "bytecode": {
    "object": "0x608060405234801561001057600080fd5b50610ed8806100206000396000f3fe608060405234801561001057600080fd5b50600436106101005760003560e01c806370a0823111610097578063a9059cbb11610066578063a9059cbb1461022b578063dd62ed3e1461023e578063e03e7d9614610269578063ffd9d2b41461027c57600080fd5b806370a08231146101e757806378e979251461020757806395d89b41146102105780639dc29fac1461021857600080fd5b8063313ce567116100d3578063313ce5671461016e5780633197cbb61461018d57806340c10f19146101a457806360f96a8f146101b757600080fd5b806306fdde0314610105578063095ea7b3146101235780631f7fd4301461014657806323b872dd1461015b575b600080fd5b61010d61028f565b60405161011a9190610b70565b60405180910390f35b610136610131366004610be1565b61031d565b604051901515815260200161011a565b610159610154366004610cae565b610333565b005b610136610169366004610d3c565b6103f2565b60045461017b9060ff1681565b60405160ff909116815260200161011a565b61019660065481565b60405190815260200161011a565b6101596101b2366004610be1565b61049c565b6007546101cf9061010090046001600160a01b031681565b6040516001600160a01b03909116815260200161011a565b6101966101f5366004610d78565b60006020819052908152604090205481565b61019660055481565b61010d6104e2565b610159610226366004610be1565b6104ef565b610136610239366004610be1565b6105a4565b61019661024c366004610d93565b600160209081526000928352604080842090915290825290205481565b610136610277366004610d3c565b6105b1565b61013661028a366004610d3c565b6105f7565b6002805461029c90610dc6565b80601f01602080910402602001604051908101604052809291908181526020018280546102c890610dc6565b80156103155780601f106102ea57610100808354040283529160200191610315565b820191906000526020600020905b8154815290600101906020018083116102f857829003601f168201915b505050505081565b600061032a33848461063d565b50600192915050565b60075460ff161561038b5760405162461bcd60e51b815260206004820152601f60248201527f536c6963653a20616c7265616479206265656e20696e697469616c697a65640060448201526064015b60405180910390fd5b845161039e906002906020880190610ad7565b5083516103b2906003906020870190610ad7565b506004805460ff9490941660ff19948516179055600591909155600655600780546001600160a81b03191661010033029092169190911760011790555050565b60006103ff848484610762565b610492843361048d856040518060400160405280601981526020017f536c6963653a20746f6f206c65737320616c6c6f77616e636500000000000000815250600160008b6001600160a01b03166001600160a01b03168152602001908152602001600020600061046c3390565b6001600160a01b0316815260208101919091526040016000205491906108e5565b61063d565b5060019392505050565b60075461010090046001600160a01b0316336001600160a01b0316146104d45760405162461bcd60e51b815260040161038290610e00565b6104de828261091f565b5050565b6003805461029c90610dc6565b60075461010090046001600160a01b0316336001600160a01b0316146105275760405162461bcd60e51b815260040161038290610e00565b6001600160a01b03821660009081526020819052604090205481111561059a5760405162461bcd60e51b815260206004820152602260248201527f536c6963653a206275726e20616d6f756e7420657863656564732062616c616e604482015261636560f01b6064820152608401610382565b6104de82826109e8565b600061032a338484610762565b60075460009061010090046001600160a01b0316336001600160a01b0316146105ec5760405162461bcd60e51b815260040161038290610e00565b61049284848461063d565b60075460009061010090046001600160a01b0316336001600160a01b0316146106325760405162461bcd60e51b815260040161038290610e00565b610492848484610762565b6001600160a01b03831661069f5760405162461bcd60e51b8152602060048201526024808201527f536c6963653a20617070726f76652066726f6d20746865207a65726f206164646044820152637265737360e01b6064820152608401610382565b6001600160a01b0382166107005760405162461bcd60e51b815260206004820152602260248201527f536c6963653a20617070726f766520746f20746865207a65726f206164647265604482015261737360f01b6064820152608401610382565b6001600160a01b0383811660008181526001602090815260408083209487168084529482529182902085905590518481527f8c5be1e5ebec7d5bd14f71427d1e84f3dd0314c0f7b2291e5b200ac8c7c3b92591015b60405180910390a3505050565b6001600160a01b0383166107c65760405162461bcd60e51b815260206004820152602560248201527f536c6963653a207472616e736665722066726f6d20746865207a65726f206164604482015264647265737360d81b6064820152608401610382565b6001600160a01b0382166108285760405162461bcd60e51b815260206004820152602360248201527f536c6963653a207472616e7366657220746f20746865207a65726f206164647260448201526265737360e81b6064820152608401610382565b61086581604051806060016040528060268152602001610e7d602691396001600160a01b03861660009081526020819052604090205491906108e5565b6001600160a01b0380851660009081526020819052604080822093909355908416815220546108949082610a71565b6001600160a01b038381166000818152602081815260409182902094909455518481529092918616917fddf252ad1be2c89b69c2b068fc378daa952ba7f163c4a11628f55a4df523b3ef9101610755565b600081848411156109095760405162461bcd60e51b81526004016103829190610b70565b5060006109168486610e4d565b95945050505050565b6000811161096f5760405162461bcd60e51b815260206004820152601d60248201527f536c6963653a20696e76616c696420616d6f756e7420746f206d696e740000006044820152606401610382565b6001600160a01b0382166000908152602081905260409020546109929082610a71565b6001600160a01b038316600081815260208181526040808320949094559251848152919290917fddf252ad1be2c89b69c2b068fc378daa952ba7f163c4a11628f55a4df523b3ef91015b60405180910390a35050565b610a2581604051806060016040528060268152602001610e7d602691396001600160a01b03851660009081526020819052604090205491906108e5565b6001600160a01b03831660008181526020818152604080832094909455925184815290927fddf252ad1be2c89b69c2b068fc378daa952ba7f163c4a11628f55a4df523b3ef91016109dc565b600080610a7e8385610e64565b905083811015610ad05760405162461bcd60e51b815260206004820152601b60248201527f536166654d6174683a206164646974696f6e206f766572666c6f7700000000006044820152606401610382565b9392505050565b828054610ae390610dc6565b90600052602060002090601f016020900481019282610b055760008555610b4b565b82601f10610b1e57805160ff1916838001178555610b4b565b82800160010185558215610b4b579182015b82811115610b4b578251825591602001919060010190610b30565b50610b57929150610b5b565b5090565b5b80821115610b575760008155600101610b5c565b600060208083528351808285015260005b81811015610b9d57858101830151858201604001528201610b81565b81811115610baf576000604083870101525b50601f01601f1916929092016040019392505050565b80356001600160a01b0381168114610bdc57600080fd5b919050565b60008060408385031215610bf457600080fd5b610bfd83610bc5565b946020939093013593505050565b634e487b7160e01b600052604160045260246000fd5b600082601f830112610c3257600080fd5b813567ffffffffffffffff80821115610c4d57610c4d610c0b565b604051601f8301601f19908116603f01168101908282118183101715610c7557610c75610c0b565b81604052838152866020858801011115610c8e57600080fd5b836020870160208301376000602085830101528094505050505092915050565b600080600080600060a08688031215610cc657600080fd5b853567ffffffffffffffff80821115610cde57600080fd5b610cea89838a01610c21565b96506020880135915080821115610d0057600080fd5b50610d0d88828901610c21565b945050604086013560ff81168114610d2457600080fd5b94979396509394606081013594506080013592915050565b600080600060608486031215610d5157600080fd5b610d5a84610bc5565b9250610d6860208501610bc5565b9150604084013590509250925092565b600060208284031215610d8a57600080fd5b610ad082610bc5565b60008060408385031215610da657600080fd5b610daf83610bc5565b9150610dbd60208401610bc5565b90509250929050565b600181811c90821680610dda57607f821691505b602082108103610dfa57634e487b7160e01b600052602260045260246000fd5b50919050565b6020808252601c908201527f536c6963653a2063616c6c6572206d75737420626520706172656e7400000000604082015260600190565b634e487b7160e01b600052601160045260246000fd5b600082821015610e5f57610e5f610e37565b500390565b60008219821115610e7757610e77610e37565b50019056fe536c6963653a207472616e7366657220616d6f756e7420657863656564732062616c616e6365a2646970667358221220d82d4286e17f89640ce0a06977db895787fea385158e2161d9a0f94e2f296f3a64736f6c634300080d0033",
    "linkReferences": {}
  }
}